{
  "contractName": "Peershare",
  "abi": [
    {
      "anonymous": false,
      "inputs": [
        {
          "indexed": true,
          "internalType": "address",
          "name": "owner",
          "type": "address"
        },
        {
          "indexed": false,
          "internalType": "string",
          "name": "carHash",
          "type": "string"
        }
      ],
      "name": "AddCar",
      "type": "event"
    },
    {
      "anonymous": false,
      "inputs": [
        {
          "indexed": true,
          "internalType": "address",
          "name": "user",
          "type": "address"
        }
      ],
      "name": "AddUser",
      "type": "event"
    },
    {
      "anonymous": false,
      "inputs": [
        {
          "indexed": true,
          "internalType": "address",
          "name": "borrower",
          "type": "address"
        },
        {
          "indexed": false,
          "internalType": "string",
          "name": "carHash",
          "type": "string"
        }
      ],
      "name": "RentCar",
      "type": "event"
    },
    {
      "anonymous": false,
      "inputs": [
        {
          "indexed": true,
          "internalType": "address",
          "name": "borrower",
          "type": "address"
        },
        {
          "indexed": false,
          "internalType": "string",
          "name": "carHash",
          "type": "string"
        }
      ],
      "name": "ReturnCar",
      "type": "event"
    },
    {
      "anonymous": false,
      "inputs": [
        {
          "indexed": true,
          "internalType": "address",
          "name": "from",
          "type": "address"
        },
        {
          "indexed": true,
          "internalType": "address",
          "name": "to",
          "type": "address"
        },
        {
          "indexed": false,
          "internalType": "uint256",
          "name": "value",
          "type": "uint256"
        }
      ],
      "name": "Transfer",
      "type": "event"
    },
    {
      "constant": true,
      "inputs": [
        {
          "internalType": "address",
          "name": "",
          "type": "address"
        }
      ],
      "name": "activeUsers",
      "outputs": [
        {
          "internalType": "bool",
          "name": "",
          "type": "bool"
        }
      ],
      "payable": false,
      "stateMutability": "view",
      "type": "function"
    },
    {
      "constant": true,
      "inputs": [
        {
          "internalType": "string",
          "name": "",
          "type": "string"
        }
      ],
      "name": "borrowerSignature",
      "outputs": [
        {
          "internalType": "address",
          "name": "",
          "type": "address"
        }
      ],
      "payable": false,
      "stateMutability": "view",
      "type": "function"
    },
    {
      "constant": true,
      "inputs": [
        {
          "internalType": "string",
          "name": "",
          "type": "string"
        }
      ],
      "name": "ownerSignature",
      "outputs": [
        {
          "internalType": "address",
          "name": "",
          "type": "address"
        }
      ],
      "payable": false,
      "stateMutability": "view",
      "type": "function"
    },
    {
      "constant": true,
      "inputs": [
        {
          "internalType": "address",
          "name": "",
          "type": "address"
        }
      ],
      "name": "userSignature",
      "outputs": [
        {
          "internalType": "string",
          "name": "",
          "type": "string"
        }
      ],
      "payable": false,
      "stateMutability": "view",
      "type": "function"
    },
    {
      "constant": true,
      "inputs": [],
      "name": "getUserCount",
      "outputs": [
        {
          "internalType": "uint256",
          "name": "",
          "type": "uint256"
        }
      ],
      "payable": false,
      "stateMutability": "view",
      "type": "function"
    },
    {
      "constant": true,
      "inputs": [
        {
          "internalType": "address",
          "name": "ethereumAddress",
          "type": "address"
        }
      ],
      "name": "getUser",
      "outputs": [
        {
          "internalType": "uint256",
          "name": "",
          "type": "uint256"
        }
      ],
      "payable": false,
      "stateMutability": "view",
      "type": "function"
    },
    {
      "constant": false,
      "inputs": [
        {
          "internalType": "address",
          "name": "ethereumAddress",
          "type": "address"
        },
        {
          "internalType": "string",
          "name": "userHash",
          "type": "string"
        }
      ],
      "name": "addUser",
      "outputs": [
        {
          "internalType": "bool",
          "name": "",
          "type": "bool"
        }
      ],
      "payable": false,
      "stateMutability": "nonpayable",
      "type": "function"
    },
    {
      "constant": true,
      "inputs": [],
      "name": "getCarCount",
      "outputs": [
        {
          "internalType": "uint256",
          "name": "",
          "type": "uint256"
        }
      ],
      "payable": false,
      "stateMutability": "view",
      "type": "function"
    },
    {
      "constant": false,
      "inputs": [
        {
          "internalType": "string",
          "name": "carHash",
          "type": "string"
        },
        {
          "internalType": "address",
          "name": "owner",
          "type": "address"
        }
      ],
      "name": "addCar",
      "outputs": [
        {
          "internalType": "bool",
          "name": "",
          "type": "bool"
        }
      ],
      "payable": false,
      "stateMutability": "nonpayable",
      "type": "function"
    },
    {
      "constant": false,
      "inputs": [
        {
          "internalType": "string",
          "name": "carHash",
          "type": "string"
        },
        {
          "internalType": "address",
          "name": "borrower",
          "type": "address"
        }
      ],
      "name": "rentCar",
      "outputs": [
        {
          "internalType": "bool",
          "name": "",
          "type": "bool"
        }
      ],
      "payable": false,
      "stateMutability": "nonpayable",
      "type": "function"
    },
    {
      "constant": false,
      "inputs": [
        {
          "internalType": "string",
          "name": "carHash",
          "type": "string"
        },
        {
          "internalType": "address",
          "name": "borrower",
          "type": "address"
        }
      ],
      "name": "returnCar",
      "outputs": [
        {
          "internalType": "bool",
          "name": "",
          "type": "bool"
        }
      ],
      "payable": false,
      "stateMutability": "nonpayable",
      "type": "function"
    },
    {
      "constant": false,
      "inputs": [
        {
          "internalType": "address payable",
          "name": "sender",
          "type": "address"
        },
        {
          "internalType": "address payable",
          "name": "recipient",
          "type": "address"
        },
        {
          "internalType": "uint256",
          "name": "amount",
          "type": "uint256"
        }
      ],
      "name": "transferFrom",
      "outputs": [
        {
          "internalType": "bool",
          "name": "",
          "type": "bool"
        }
      ],
      "payable": true,
      "stateMutability": "payable",
      "type": "function"
    },
    {
      "constant": true,
      "inputs": [
        {
          "internalType": "address",
          "name": "sender",
          "type": "address"
        }
      ],
      "name": "getBalance",
      "outputs": [
        {
          "internalType": "uint256",
          "name": "",
          "type": "uint256"
        }
      ],
      "payable": false,
      "stateMutability": "view",
      "type": "function"
    }
  ],
  "bytecode": "0x60806040526000600255600060055534801561001a57600080fd5b506113888061002a6000396000f3fe6080604052600436106100c25760003560e01c8063617fb2321161007f578063714c194711610059578063714c1947146107af578063b5cb15f7146108b7578063eb0eb8ab146108e2578063f8b2cb4f1461094b576100c2565b8063617fb232146105805780636b8bfc721461064a5780636f77926b1461074a576100c2565b806308bfaadd146100c75780630cbb8526146101c757806323b872dd146102c757806327436b591461034d5780634ad3ed5f146103785780634b68d43114610480575b600080fd5b3480156100d357600080fd5b506101ad600480360360408110156100ea57600080fd5b810190808035906020019064010000000081111561010757600080fd5b82018360208201111561011957600080fd5b8035906020019184600183028401116401000000008311171561013b57600080fd5b91908080601f016020809104026020016040519081016040528093929190818152602001838380828437600081840152601f19601f820116905080830192505050505050509192919290803573ffffffffffffffffffffffffffffffffffffffff1690602001909291905050506109b0565b604051808215151515815260200191505060405180910390f35b3480156101d357600080fd5b506102ad600480360360408110156101ea57600080fd5b810190808035906020019064010000000081111561020757600080fd5b82018360208201111561021957600080fd5b8035906020019184600183028401116401000000008311171561023b57600080fd5b91908080601f016020809104026020016040519081016040528093929190818152602001838380828437600081840152601f19601f820116905080830192505050505050509192919290803573ffffffffffffffffffffffffffffffffffffffff169060200190929190505050610b23565b604051808215151515815260200191505060405180910390f35b610333600480360360608110156102dd57600080fd5b81019080803573ffffffffffffffffffffffffffffffffffffffff169060200190929190803573ffffffffffffffffffffffffffffffffffffffff16906020019092919080359060200190929190505050610c8a565b604051808215151515815260200191505060405180910390f35b34801561035957600080fd5b50610362610ca2565b6040518082815260200191505060405180910390f35b34801561038457600080fd5b5061043e6004803603602081101561039b57600080fd5b81019080803590602001906401000000008111156103b857600080fd5b8201836020820111156103ca57600080fd5b803590602001918460018302840111640100000000831117156103ec57600080fd5b91908080601f016020809104026020016040519081016040528093929190818152602001838380828437600081840152601f19601f820116905080830192505050505050509192919290505050610cac565b604051808273ffffffffffffffffffffffffffffffffffffffff1673ffffffffffffffffffffffffffffffffffffffff16815260200191505060405180910390f35b34801561048c57600080fd5b50610566600480360360408110156104a357600080fd5b81019080803573ffffffffffffffffffffffffffffffffffffffff169060200190929190803590602001906401000000008111156104e057600080fd5b8201836020820111156104f257600080fd5b8035906020019184600183028401116401000000008311171561051457600080fd5b91908080601f016020809104026020016040519081016040528093929190818152602001838380828437600081840152601f19601f820116905080830192505050505050509192919290505050610cf5565b604051808215151515815260200191505060405180910390f35b34801561058c57600080fd5b506105cf600480360360208110156105a357600080fd5b81019080803573ffffffffffffffffffffffffffffffffffffffff169060200190929190505050610dfa565b6040518080602001828103825283818151815260200191508051906020019080838360005b8381101561060f5780820151818401526020810190506105f4565b50505050905090810190601f16801561063c5780820380516001836020036101000a031916815260200191505b509250505060405180910390f35b34801561065657600080fd5b506107306004803603604081101561066d57600080fd5b810190808035906020019064010000000081111561068a57600080fd5b82018360208201111561069c57600080fd5b803590602001918460018302840111640100000000831117156106be57600080fd5b91908080601f016020809104026020016040519081016040528093929190818152602001838380828437600081840152601f19601f820116905080830192505050505050509192919290803573ffffffffffffffffffffffffffffffffffffffff169060200190929190505050610eaa565b604051808215151515815260200191505060405180910390f35b34801561075657600080fd5b506107996004803603602081101561076d57600080fd5b81019080803573ffffffffffffffffffffffffffffffffffffffff169060200190929190505050610ff5565b6040518082815260200191505060405180910390f35b3480156107bb57600080fd5b50610875600480360360208110156107d257600080fd5b81019080803590602001906401000000008111156107ef57600080fd5b82018360208201111561080157600080fd5b8035906020019184600183028401116401000000008311171561082357600080fd5b91908080601f016020809104026020016040519081016040528093929190818152602001838380828437600081840152601f19601f82011690508083019250505050505050919291929050505061105c565b604051808273ffffffffffffffffffffffffffffffffffffffff1673ffffffffffffffffffffffffffffffffffffffff16815260200191505060405180910390f35b3480156108c357600080fd5b506108cc6110a5565b6040518082815260200191505060405180910390f35b3480156108ee57600080fd5b506109316004803603602081101561090557600080fd5b81019080803573ffffffffffffffffffffffffffffffffffffffff1690602001909291905050506110af565b604051808215151515815260200191505060405180910390f35b34801561095757600080fd5b5061099a6004803603602081101561096e57600080fd5b81019080803573ffffffffffffffffffffffffffffffffffffffff1690602001909291905050506110cf565b6040518082815260200191505060405180910390f35b6000816004846040518082805190602001908083835b602083106109e957805182526020820191506020810190506020830392506109c6565b6001836020036101000a038019825116818451168082178552505050505050905001915050908152602001604051809103902060006101000a81548173ffffffffffffffffffffffffffffffffffffffff021916908373ffffffffffffffffffffffffffffffffffffffff1602179055506001600554016005819055508173ffffffffffffffffffffffffffffffffffffffff167fbda0c4462fcbe173b187cabebc702ab9154b81f631498f0020488a5350816210846040518080602001828103825283818151815260200191508051906020019080838360005b83811015610adf578082015181840152602081019050610ac4565b50505050905090810190601f168015610b0c5780820380516001836020036101000a031916815260200191505b509250505060405180910390a26001905092915050565b6000816003846040518082805190602001908083835b60208310610b5c5780518252602082019150602081019050602083039250610b39565b6001836020036101000a038019825116818451168082178552505050505050905001915050908152602001604051809103902060006101000a81548173ffffffffffffffffffffffffffffffffffffffff021916908373ffffffffffffffffffffffffffffffffffffffff1602179055508173ffffffffffffffffffffffffffffffffffffffff167ffda52cd098ea9ec3f7450176ec3b76328eea1dadf39c79996a2a4d62e76ecd40846040518080602001828103825283818151815260200191508051906020019080838360005b83811015610c46578082015181840152602081019050610c2b565b50505050905090810190601f168015610c735780820380516001836020036101000a031916815260200191505b509250505060405180910390a26001905092915050565b6000610c978484846110f0565b600190509392505050565b6000600554905090565b6004818051602081018201805184825260208301602085012081835280955050505050506000915054906101000a900473ffffffffffffffffffffffffffffffffffffffff1681565b600060016002540160028190555060018060008573ffffffffffffffffffffffffffffffffffffffff1673ffffffffffffffffffffffffffffffffffffffff16815260200190815260200160002060006101000a81548160ff021916908315150217905550816000808573ffffffffffffffffffffffffffffffffffffffff1673ffffffffffffffffffffffffffffffffffffffff1681526020019081526020016000209080519060200190610dac929190611266565b508273ffffffffffffffffffffffffffffffffffffffff167f93e8ef53fa1762269961bdc02811e560fa10787f7f2f9c13f74ddad8221614d260405160405180910390a26001905092915050565b60006020528060005260406000206000915090508054600181600116156101000203166002900480601f016020809104026020016040519081016040528092919081815260200182805460018160011615610100020316600290048015610ea25780601f10610e7757610100808354040283529160200191610ea2565b820191906000526020600020905b815481529060010190602001808311610e8557829003601f168201915b505050505081565b60006003836040518082805190602001908083835b60208310610ee25780518252602082019150602081019050602083039250610ebf565b6001836020036101000a038019825116818451168082178552505050505050905001915050908152602001604051809103902060006101000a81549073ffffffffffffffffffffffffffffffffffffffff02191690558173ffffffffffffffffffffffffffffffffffffffff167f5298ad2916c26d53f4c205f4a171d3654d373caa8976fac0efa1b92e1627f03d846040518080602001828103825283818151815260200191508051906020019080838360005b83811015610fb1578082015181840152602081019050610f96565b50505050905090810190601f168015610fde5780820380516001836020036101000a031916815260200191505b509250505060405180910390a26001905092915050565b6000600160008373ffffffffffffffffffffffffffffffffffffffff1673ffffffffffffffffffffffffffffffffffffffff16815260200190815260200160002060009054906101000a900460ff16156110525760009050611057565b600190505b919050565b6003818051602081018201805184825260208301602085012081835280955050505050506000915054906101000a900473ffffffffffffffffffffffffffffffffffffffff1681565b6000600254905090565b60016020528060005260406000206000915054906101000a900460ff1681565b60008173ffffffffffffffffffffffffffffffffffffffff16319050919050565b600073ffffffffffffffffffffffffffffffffffffffff168373ffffffffffffffffffffffffffffffffffffffff161415611176576040517f08c379a000000000000000000000000000000000000000000000000000000000815260040180806020018281038252602581526020018061130c6025913960400191505060405180910390fd5b600073ffffffffffffffffffffffffffffffffffffffff168273ffffffffffffffffffffffffffffffffffffffff1614156111fc576040517f08c379a00000000000000000000000000000000000000000000000000000000081526004018080602001828103825260238152602001806113316023913960400191505060405180910390fd5b8173ffffffffffffffffffffffffffffffffffffffff168373ffffffffffffffffffffffffffffffffffffffff167fddf252ad1be2c89b69c2b068fc378daa952ba7f163c4a11628f55a4df523b3ef836040518082815260200191505060405180910390a3505050565b828054600181600116156101000203166002900490600052602060002090601f016020900481019282601f106112a757805160ff19168380011785556112d5565b828001600101855582156112d5579182015b828111156112d45782518255916020019190600101906112b9565b5b5090506112e291906112e6565b5090565b61130891905b808211156113045760008160009055506001016112ec565b5090565b9056fe42455032303a207472616e736665722066726f6d20746865207a65726f206164647265737342455032303a207472616e7366657220746f20746865207a65726f2061646472657373a265627a7a72315820cc68ab02531aa69a27edec79a124a6a0e8ba3d87330e59876c831e3a2f3074d864736f6c63430005100032",
  "source": "// SPDX-License-Identifier: MIT\r\n// pragma solidity ^0.8.11;\r\npragma solidity ^0.5.0;\r\n\r\n// smart contract to add new user, new cars and any ride on the blockchain\r\ncontract Peershare {\r\n    // state variables\r\n    //user registration\r\n    mapping(address => string) public userSignature;\r\n    mapping(address => bool) public activeUsers;\r\n    uint256 userCount = 0;\r\n    //car management\r\n    mapping(string => address) public borrowerSignature;\r\n    mapping(string => address) public ownerSignature;\r\n    uint256 carCount = 0;\r\n    // payment transaction\r\n    mapping(address => uint256) private balances;\r\n\r\n    //events to broadcast the changes\r\n    event Transfer(address indexed from, address indexed to, uint256 value);\r\n    event AddUser(address indexed user);\r\n    event AddCar(address indexed owner, string carHash);\r\n    event RentCar(address indexed borrower, string carHash);\r\n    event ReturnCar(address indexed borrower, string carHash);\r\n\r\n    function getUserCount() public view returns (uint256) {\r\n        return uint256(userCount);\r\n    }\r\n\r\n    function getUser(address ethereumAddress) public view returns (uint256) {\r\n        if (activeUsers[ethereumAddress]) {\r\n            return uint256(0);\r\n        }\r\n        return uint256(1);\r\n    }\r\n\r\n    function addUser(address ethereumAddress, string memory userHash)\r\n        public\r\n        returns (bool)\r\n    {\r\n        // Add user address\r\n        userCount = userCount + 1;\r\n        activeUsers[ethereumAddress] = true;\r\n\r\n        //storing signature\r\n        userSignature[ethereumAddress] = userHash;\r\n\r\n        emit AddUser(ethereumAddress);\r\n        return true;\r\n    }\r\n\r\n    function getCarCount() public view returns (uint256) {\r\n        return uint256(carCount);\r\n    }\r\n\r\n    function addCar(string memory carHash, address owner)\r\n        public\r\n        returns (bool)\r\n    {\r\n        ownerSignature[carHash] = owner;\r\n        carCount = carCount + 1;\r\n\r\n        emit AddCar(owner, carHash);\r\n        return bool(true);\r\n    }\r\n\r\n    function rentCar(string memory carHash, address borrower)\r\n        public\r\n        returns (bool)\r\n    {\r\n        // Add borrower signature\r\n        borrowerSignature[carHash] = borrower;\r\n        emit RentCar(borrower, carHash);\r\n        return true;\r\n    }\r\n\r\n    function returnCar(string memory carHash, address borrower)\r\n        public\r\n        returns (bool)\r\n    {\r\n        // Delete the borrower signature for the car\r\n        delete borrowerSignature[carHash];\r\n        emit ReturnCar(borrower, carHash);\r\n        return true;\r\n    }\r\n\r\n    function transferFrom(\r\n        address payable sender,\r\n        address payable recipient,\r\n        uint256 amount\r\n    ) external payable returns (bool) {\r\n        _transfer(sender, recipient, amount);\r\n        //_approve(sender, _msgSender(), _allowances[sender][_msgSender()].sub(amount, \"BEP20: transfer amount exceeds allowance\"));\r\n        return true;\r\n    }\r\n\r\n    function _transfer(\r\n        address payable sender,\r\n        address payable recipient,\r\n        uint256 amount\r\n    ) internal {\r\n        require(sender != address(0), \"BEP20: transfer from the zero address\");\r\n        require(recipient != address(0), \"BEP20: transfer to the zero address\");\r\n        //balances[sender] = balances[sender].sub(amount, \"BEP20: transfer amount exceeds balance\");\r\n        //balances[sender] -=amount;\r\n        //balances[recipient]+=amount;\r\n        // balances[recipient] = balances[recipient].add(amount);\r\n        emit Transfer(sender, recipient, amount);\r\n    }\r\n\r\n    function getBalance(address sender) public view returns (uint256) {\r\n        return address(sender).balance;\r\n    }\r\n}\r\n",
  "sourcePath": "C:\\Esha\\SchoolWork\\master-project\\final-project\\peershare-main\\peershare\\backend\\blockchain\\contracts\\Peershare.sol",
  "compiler": {
    "name": "solc",
    "version": "0.5.16+commit.9c3226ce.Emscripten.clang"
  },
  "schemaVersion": "3.4.10",
  "updatedAt": "2022-11-28T01:38:13.782Z",
  "networkType": "ethereum",
  "devdoc": {
    "methods": {}
  },
  "userdoc": {
    "methods": {}
  }
}