{
  "contractName": "Peershare",
  "abi": [
    {
      "anonymous": false,
      "inputs": [
        {
          "indexed": true,
          "internalType": "address",
          "name": "from",
          "type": "address"
        },
        {
          "indexed": true,
          "internalType": "address",
          "name": "to",
          "type": "address"
        },
        {
          "indexed": false,
          "internalType": "uint256",
          "name": "value",
          "type": "uint256"
        }
      ],
      "name": "Transfer",
      "type": "event"
    },
    {
      "constant": true,
      "inputs": [
        {
          "internalType": "uint256",
          "name": "",
          "type": "uint256"
        }
      ],
      "name": "activeUsers",
      "outputs": [
        {
          "internalType": "address",
          "name": "",
          "type": "address"
        }
      ],
      "payable": false,
      "stateMutability": "view",
      "type": "function"
    },
    {
      "constant": true,
      "inputs": [
        {
          "internalType": "bytes32",
          "name": "",
          "type": "bytes32"
        }
      ],
      "name": "borrowerSignature",
      "outputs": [
        {
          "internalType": "bytes",
          "name": "",
          "type": "bytes"
        }
      ],
      "payable": false,
      "stateMutability": "view",
      "type": "function"
    },
    {
      "constant": true,
      "inputs": [
        {
          "internalType": "bytes32",
          "name": "",
          "type": "bytes32"
        }
      ],
      "name": "ownerSignature",
      "outputs": [
        {
          "internalType": "bytes",
          "name": "",
          "type": "bytes"
        }
      ],
      "payable": false,
      "stateMutability": "view",
      "type": "function"
    },
    {
      "constant": true,
      "inputs": [
        {
          "internalType": "bytes32",
          "name": "",
          "type": "bytes32"
        }
      ],
      "name": "userSignature",
      "outputs": [
        {
          "internalType": "bytes",
          "name": "",
          "type": "bytes"
        }
      ],
      "payable": false,
      "stateMutability": "view",
      "type": "function"
    },
    {
      "constant": true,
      "inputs": [],
      "name": "getUserCount",
      "outputs": [
        {
          "internalType": "uint256",
          "name": "",
          "type": "uint256"
        }
      ],
      "payable": false,
      "stateMutability": "view",
      "type": "function"
    },
    {
      "constant": true,
      "inputs": [
        {
          "internalType": "address",
          "name": "ethereumAddress",
          "type": "address"
        }
      ],
      "name": "getUser",
      "outputs": [
        {
          "internalType": "address",
          "name": "",
          "type": "address"
        }
      ],
      "payable": false,
      "stateMutability": "view",
      "type": "function"
    },
    {
      "constant": false,
      "inputs": [
        {
          "internalType": "address",
          "name": "ethereumAddress",
          "type": "address"
        },
        {
          "internalType": "bytes32",
          "name": "userHash",
          "type": "bytes32"
        },
        {
          "internalType": "bytes",
          "name": "signature",
          "type": "bytes"
        }
      ],
      "name": "addUser",
      "outputs": [
        {
          "internalType": "bool",
          "name": "",
          "type": "bool"
        }
      ],
      "payable": false,
      "stateMutability": "nonpayable",
      "type": "function"
    },
    {
      "constant": false,
      "inputs": [
        {
          "internalType": "bytes32",
          "name": "carHash",
          "type": "bytes32"
        },
        {
          "internalType": "bytes",
          "name": "signature",
          "type": "bytes"
        }
      ],
      "name": "addCar",
      "outputs": [
        {
          "internalType": "bool",
          "name": "",
          "type": "bool"
        }
      ],
      "payable": false,
      "stateMutability": "nonpayable",
      "type": "function"
    },
    {
      "constant": false,
      "inputs": [
        {
          "internalType": "bytes32",
          "name": "carHash",
          "type": "bytes32"
        },
        {
          "internalType": "address",
          "name": "ownerAddress",
          "type": "address"
        },
        {
          "internalType": "bytes",
          "name": "signature",
          "type": "bytes"
        }
      ],
      "name": "rentCar",
      "outputs": [
        {
          "internalType": "bool",
          "name": "",
          "type": "bool"
        }
      ],
      "payable": false,
      "stateMutability": "nonpayable",
      "type": "function"
    },
    {
      "constant": false,
      "inputs": [
        {
          "internalType": "bytes32",
          "name": "carHash",
          "type": "bytes32"
        },
        {
          "internalType": "address",
          "name": "ownerAddress",
          "type": "address"
        }
      ],
      "name": "returnCar",
      "outputs": [
        {
          "internalType": "bool",
          "name": "",
          "type": "bool"
        }
      ],
      "payable": false,
      "stateMutability": "nonpayable",
      "type": "function"
    },
    {
      "constant": false,
      "inputs": [
        {
          "internalType": "address payable",
          "name": "sender",
          "type": "address"
        },
        {
          "internalType": "address payable",
          "name": "recipient",
          "type": "address"
        },
        {
          "internalType": "uint256",
          "name": "amount",
          "type": "uint256"
        }
      ],
      "name": "transferFrom",
      "outputs": [
        {
          "internalType": "bool",
          "name": "",
          "type": "bool"
        }
      ],
      "payable": true,
      "stateMutability": "payable",
      "type": "function"
    },
    {
      "constant": true,
      "inputs": [
        {
          "internalType": "address",
          "name": "sender",
          "type": "address"
        }
      ],
      "name": "getBalance",
      "outputs": [
        {
          "internalType": "uint256",
          "name": "",
          "type": "uint256"
        }
      ],
      "payable": false,
      "stateMutability": "view",
      "type": "function"
    }
  ],
  "bytecode": "0x6080604052600060025534801561001557600080fd5b50611853806100256000396000f3fe6080604052600436106100a75760003560e01c8063b458262c11610064578063b458262c1461046f578063b5cb15f714610523578063bbeae3881461054e578063d2d7f7ba14610638578063e00f3eba14610742578063f8b2cb4f146107f6576100a7565b806311d08980146100ac57806323b872dd1461011f578063431d23ae146101a55780635d1dcf11146102595780636f77926b14610363578063803ae518146103f4575b600080fd5b3480156100b857600080fd5b50610105600480360360408110156100cf57600080fd5b8101908080359060200190929190803573ffffffffffffffffffffffffffffffffffffffff16906020019092919050505061085b565b604051808215151515815260200191505060405180910390f35b61018b6004803603606081101561013557600080fd5b81019080803573ffffffffffffffffffffffffffffffffffffffff169060200190929190803573ffffffffffffffffffffffffffffffffffffffff16906020019092919080359060200190929190505050610bcb565b604051808215151515815260200191505060405180910390f35b3480156101b157600080fd5b506101de600480360360208110156101c857600080fd5b8101908080359060200190929190505050610be3565b6040518080602001828103825283818151815260200191508051906020019080838360005b8381101561021e578082015181840152602081019050610203565b50505050905090810190601f16801561024b5780820380516001836020036101000a031916815260200191505b509250505060405180910390f35b34801561026557600080fd5b506103496004803603606081101561027c57600080fd5b81019080803573ffffffffffffffffffffffffffffffffffffffff16906020019092919080359060200190929190803590602001906401000000008111156102c357600080fd5b8201836020820111156102d557600080fd5b803590602001918460018302840111640100000000831117156102f757600080fd5b91908080601f016020809104026020016040519081016040528093929190818152602001838380828437600081840152601f19601f820116905080830192505050505050509192919290505050610c93565b604051808215151515815260200191505060405180910390f35b34801561036f57600080fd5b506103b26004803603602081101561038657600080fd5b81019080803573ffffffffffffffffffffffffffffffffffffffff169060200190929190505050610d27565b604051808273ffffffffffffffffffffffffffffffffffffffff1673ffffffffffffffffffffffffffffffffffffffff16815260200191505060405180910390f35b34801561040057600080fd5b5061042d6004803603602081101561041757600080fd5b8101908080359060200190929190505050610df3565b604051808273ffffffffffffffffffffffffffffffffffffffff1673ffffffffffffffffffffffffffffffffffffffff16815260200191505060405180910390f35b34801561047b57600080fd5b506104a86004803603602081101561049257600080fd5b8101908080359060200190929190505050610e26565b6040518080602001828103825283818151815260200191508051906020019080838360005b838110156104e85780820151818401526020810190506104cd565b50505050905090810190601f1680156105155780820380516001836020036101000a031916815260200191505b509250505060405180910390f35b34801561052f57600080fd5b50610538610ed6565b6040518082815260200191505060405180910390f35b34801561055a57600080fd5b5061061e6004803603604081101561057157600080fd5b81019080803590602001909291908035906020019064010000000081111561059857600080fd5b8201836020820111156105aa57600080fd5b803590602001918460018302840111640100000000831117156105cc57600080fd5b91908080601f016020809104026020016040519081016040528093929190818152602001838380828437600081840152601f19601f820116905080830192505050505050509192919290505050610ee0565b604051808215151515815260200191505060405180910390f35b34801561064457600080fd5b506107286004803603606081101561065b57600080fd5b8101908080359060200190929190803573ffffffffffffffffffffffffffffffffffffffff169060200190929190803590602001906401000000008111156106a257600080fd5b8201836020820111156106b457600080fd5b803590602001918460018302840111640100000000831117156106d657600080fd5b91908080601f016020809104026020016040519081016040528093929190818152602001838380828437600081840152601f19601f82011690508083019250505050505050919291929050505061100b565b604051808215151515815260200191505060405180910390f35b34801561074e57600080fd5b5061077b6004803603602081101561076557600080fd5b81019080803590602001909291905050506112da565b6040518080602001828103825283818151815260200191508051906020019080838360005b838110156107bb5780820151818401526020810190506107a0565b50505050905090810190601f1680156107e85780820380516001836020036101000a031916815260200191505b509250505060405180910390f35b34801561080257600080fd5b506108456004803603602081101561081957600080fd5b81019080803573ffffffffffffffffffffffffffffffffffffffff16906020019092919050505061138a565b6040518082815260200191505060405180910390f35b6000806109786108c78585604051602001808381526020018273ffffffffffffffffffffffffffffffffffffffff1673ffffffffffffffffffffffffffffffffffffffff1660601b815260140192505050604051602081830303815290604052805190602001206113ab565b600460008781526020019081526020016000208054600181600116156101000203166002900480601f01602080910402602001604051908101604052809291908181526020018280546001816001161561010002031660029004801561096e5780601f106109435761010080835404028352916020019161096e565b820191906000526020600020905b81548152906001019060200180831161095157829003601f168201915b5050505050611403565b90508273ffffffffffffffffffffffffffffffffffffffff168173ffffffffffffffffffffffffffffffffffffffff16146109fe576040517f08c379a00000000000000000000000000000000000000000000000000000000081526004018080602001828103825260218152602001806117fe6021913960400191505060405180910390fd5b6000610b1a610a698633604051602001808381526020018273ffffffffffffffffffffffffffffffffffffffff1673ffffffffffffffffffffffffffffffffffffffff1660601b815260140192505050604051602081830303815290604052805190602001206113ab565b600360008881526020019081526020016000208054600181600116156101000203166002900480601f016020809104026020016040519081016040528092919081815260200182805460018160011615610100020316600290048015610b105780601f10610ae557610100808354040283529160200191610b10565b820191906000526020600020905b815481529060010190602001808311610af357829003601f168201915b5050505050611403565b90503373ffffffffffffffffffffffffffffffffffffffff168173ffffffffffffffffffffffffffffffffffffffff1614610ba0576040517f08c379a00000000000000000000000000000000000000000000000000000000081526004018080602001828103825260248152602001806117b76024913960400191505060405180910390fd5b600360008681526020019081526020016000206000610bbf919061167d565b60019250505092915050565b6000610bd8848484611507565b600190509392505050565b60006020528060005260406000206000915090508054600181600116156101000203166002900480601f016020809104026020016040519081016040528092919081815260200182805460018160011615610100020316600290048015610c8b5780601f10610c6057610100808354040283529160200191610c8b565b820191906000526020600020905b815481529060010190602001808311610c6e57829003601f168201915b505050505081565b60006001600254016002819055508360016000600254815260200190815260200160002060006101000a81548173ffffffffffffffffffffffffffffffffffffffff021916908373ffffffffffffffffffffffffffffffffffffffff160217905550816000808581526020019081526020016000209080519060200190610d1b9291906116c5565b50600190509392505050565b6000806000905060008090505b600254811015610de9578373ffffffffffffffffffffffffffffffffffffffff166001600083815260200190815260200160002060009054906101000a900473ffffffffffffffffffffffffffffffffffffffff1673ffffffffffffffffffffffffffffffffffffffff161415610ddc576001600082815260200190815260200160002060009054906101000a900473ffffffffffffffffffffffffffffffffffffffff1691505b8080600101915050610d34565b5080915050919050565b60016020528060005260406000206000915054906101000a900473ffffffffffffffffffffffffffffffffffffffff1681565b60046020528060005260406000206000915090508054600181600116156101000203166002900480601f016020809104026020016040519081016040528092919081815260200182805460018160011615610100020316600290048015610ece5780601f10610ea357610100808354040283529160200191610ece565b820191906000526020600020905b815481529060010190602001808311610eb157829003601f168201915b505050505081565b6000600254905090565b600080610f52610f4c8533604051602001808381526020018273ffffffffffffffffffffffffffffffffffffffff1673ffffffffffffffffffffffffffffffffffffffff1660601b815260140192505050604051602081830303815290604052805190602001206113ab565b84611403565b90503373ffffffffffffffffffffffffffffffffffffffff168173ffffffffffffffffffffffffffffffffffffffff1614610fd8576040517f08c379a000000000000000000000000000000000000000000000000000000000815260040180806020018281038252602781526020018061176b6027913960400191505060405180910390fd5b82600460008681526020019081526020016000209080519060200190610fff9291906116c5565b50600191505092915050565b6000806111286110778686604051602001808381526020018273ffffffffffffffffffffffffffffffffffffffff1673ffffffffffffffffffffffffffffffffffffffff1660601b815260140192505050604051602081830303815290604052805190602001206113ab565b600460008881526020019081526020016000208054600181600116156101000203166002900480601f01602080910402602001604051908101604052809291908181526020018280546001816001161561010002031660029004801561111e5780601f106110f35761010080835404028352916020019161111e565b820191906000526020600020905b81548152906001019060200180831161110157829003601f168201915b5050505050611403565b90508373ffffffffffffffffffffffffffffffffffffffff168173ffffffffffffffffffffffffffffffffffffffff16146111ae576040517f08c379a00000000000000000000000000000000000000000000000000000000081526004018080602001828103825260218152602001806117fe6021913960400191505060405180910390fd5b600061121f6112198733604051602001808381526020018273ffffffffffffffffffffffffffffffffffffffff1673ffffffffffffffffffffffffffffffffffffffff1660601b815260140192505050604051602081830303815290604052805190602001206113ab565b85611403565b90503373ffffffffffffffffffffffffffffffffffffffff168173ffffffffffffffffffffffffffffffffffffffff16146112a5576040517f08c379a000000000000000000000000000000000000000000000000000000000815260040180806020018281038252602781526020018061176b6027913960400191505060405180910390fd5b836003600088815260200190815260200160002090805190602001906112cc9291906116c5565b506001925050509392505050565b60036020528060005260406000206000915090508054600181600116156101000203166002900480601f0160208091040260200160405190810160405280929190818152602001828054600181600116156101000203166002900480156113825780601f1061135757610100808354040283529160200191611382565b820191906000526020600020905b81548152906001019060200180831161136557829003601f168201915b505050505081565b60008173ffffffffffffffffffffffffffffffffffffffff16319050919050565b60008160405160200180807f19457468657265756d205369676e6564204d6573736167653a0a333200000000815250601c01828152602001915050604051602081830303815290604052805190602001209050919050565b600060418251146114175760009050611501565b60008060006020850151925060408501519150606085015160001a90507f7fffffffffffffffffffffffffffffff5d576e7357a4501ddfe92f46681b20a08260001c111561146b5760009350505050611501565b601b8160ff16141580156114835750601c8160ff1614155b156114945760009350505050611501565b60018682858560405160008152602001604052604051808581526020018460ff1660ff1681526020018381526020018281526020019450505050506020604051602081039080840390855afa1580156114f1573d6000803e3d6000fd5b5050506020604051035193505050505b92915050565b600073ffffffffffffffffffffffffffffffffffffffff168373ffffffffffffffffffffffffffffffffffffffff16141561158d576040517f08c379a00000000000000000000000000000000000000000000000000000000081526004018080602001828103825260258152602001806117926025913960400191505060405180910390fd5b600073ffffffffffffffffffffffffffffffffffffffff168273ffffffffffffffffffffffffffffffffffffffff161415611613576040517f08c379a00000000000000000000000000000000000000000000000000000000081526004018080602001828103825260238152602001806117db6023913960400191505060405180910390fd5b8173ffffffffffffffffffffffffffffffffffffffff168373ffffffffffffffffffffffffffffffffffffffff167fddf252ad1be2c89b69c2b068fc378daa952ba7f163c4a11628f55a4df523b3ef836040518082815260200191505060405180910390a3505050565b50805460018160011615610100020316600290046000825580601f106116a357506116c2565b601f0160209004906000526020600020908101906116c19190611745565b5b50565b828054600181600116156101000203166002900490600052602060002090601f016020900481019282601f1061170657805160ff1916838001178555611734565b82800160010185558215611734579182015b82811115611733578251825591602001919060010190611718565b5b5090506117419190611745565b5090565b61176791905b8082111561176357600081600090555060010161174b565b5090565b9056fe556e617574686f7269736564207369676e657220686173206265656e206465637465637465642e42455032303a207472616e736665722066726f6d20746865207a65726f206164647265737343617220646f6573206e6f742062656c6f6e6720746f2074686520626f72726f7765722e42455032303a207472616e7366657220746f20746865207a65726f206164647265737343617220646f6573206e6f742062656c6f6e6720746f20746865206f776e65722ea265627a7a72315820705c79d22e58b2bb011f4feca47d154c0e63cb89ccc1cf3e7a944a13006c224b64736f6c63430005100032",
  "source": "// SPDX-License-Identifier: MIT\r\n// pragma solidity ^0.8.11;\r\npragma solidity >=0.4.22 <0.9.0;\r\nimport \"./ECDSA.sol\";\r\n\r\n// smart contract to add new user, new cars and any ride on the blockchain\r\ncontract Peershare {\r\n    // state variables\r\n    //user registration\r\n    mapping(bytes32 => bytes) public userSignature;\r\n    mapping(uint256 => address) public activeUsers;\r\n    uint256 userCount = 0;\r\n    //car management\r\n    mapping(bytes32 => bytes) public borrowerSignature;\r\n    mapping(bytes32 => bytes) public ownerSignature;\r\n\r\n    // payment transaction\r\n    mapping(address => uint256) private balances;\r\n    event Transfer(address indexed from, address indexed to, uint256 value);\r\n\r\n    function getUserCount() public view returns (uint256) {\r\n        return userCount;\r\n    }\r\n\r\n    function getUser(address ethereumAddress) public view returns (address) {\r\n        address res = address(0x0);\r\n        // Verify if the user is unique in blockchain\r\n        for (uint256 i = 0; i < userCount; i++) {\r\n            if (activeUsers[i] == ethereumAddress) {\r\n                res = activeUsers[i];\r\n            }\r\n        }\r\n        return res;\r\n    }\r\n\r\n    function addUser(\r\n        address ethereumAddress,\r\n        bytes32 userHash,\r\n        bytes memory signature\r\n    ) public returns (bool) {\r\n        // Add user address\r\n        userCount = userCount + 1;\r\n        activeUsers[userCount] = ethereumAddress;\r\n\r\n        //storing signature\r\n        userSignature[userHash] = signature;\r\n        return true;\r\n    }\r\n\r\n    function addCar(bytes32 carHash, bytes memory signature)\r\n        public\r\n        returns (bool)\r\n    {\r\n        // Get signer from signature\r\n        address signer = ECDSA.recover(\r\n            ECDSA.toEthSignedMessageHash(\r\n                keccak256(abi.encodePacked(carHash, msg.sender))\r\n            ),\r\n            signature\r\n        );\r\n        require(\r\n            signer == msg.sender,\r\n            \"Unauthorised signer has been dectected.\"\r\n        );\r\n\r\n        ownerSignature[carHash] = signature;\r\n        return true;\r\n    }\r\n\r\n    function rentCar(\r\n        bytes32 carHash,\r\n        address ownerAddress,\r\n        bytes memory signature\r\n    ) public returns (bool) {\r\n        // Get address from owner signature\r\n        address _ownerAddress = ECDSA.recover(\r\n            ECDSA.toEthSignedMessageHash(\r\n                keccak256(abi.encodePacked(carHash, ownerAddress))\r\n            ),\r\n            ownerSignature[carHash]\r\n        );\r\n\r\n        // Verify the car belong to the right owner\r\n        require(\r\n            _ownerAddress == ownerAddress,\r\n            \"Car does not belong to the owner.\"\r\n        );\r\n\r\n        // Get signer from signature\r\n        address signer = ECDSA.recover(\r\n            ECDSA.toEthSignedMessageHash(\r\n                keccak256(abi.encodePacked(carHash, msg.sender))\r\n            ),\r\n            signature\r\n        );\r\n\r\n        // Verify the borrower address\r\n        require(\r\n            signer == msg.sender,\r\n            \"Unauthorised signer has been dectected.\"\r\n        );\r\n\r\n        // Add borrower signature\r\n        borrowerSignature[carHash] = signature;\r\n\r\n        return true;\r\n    }\r\n\r\n    function returnCar(bytes32 carHash, address ownerAddress)\r\n        public\r\n        returns (bool)\r\n    {\r\n        // Get address from owner signature\r\n        address _ownerAddress = ECDSA.recover(\r\n            ECDSA.toEthSignedMessageHash(\r\n                keccak256(abi.encodePacked(carHash, ownerAddress))\r\n            ),\r\n            ownerSignature[carHash]\r\n        );\r\n\r\n        // Verify the car belong to the right owner\r\n        require(\r\n            _ownerAddress == ownerAddress,\r\n            \"Car does not belong to the owner.\"\r\n        );\r\n\r\n        // Get address from borrower signature\r\n        address _borrowerAddress = ECDSA.recover(\r\n            ECDSA.toEthSignedMessageHash(\r\n                keccak256(abi.encodePacked(carHash, msg.sender))\r\n            ),\r\n            borrowerSignature[carHash]\r\n        );\r\n\r\n        // Verify the car returning belong to the right borrower\r\n        require(\r\n            _borrowerAddress == msg.sender,\r\n            \"Car does not belong to the borrower.\"\r\n        );\r\n\r\n        // Delete the borrower signature for the car\r\n        delete borrowerSignature[carHash];\r\n\r\n        return true;\r\n    }\r\n\r\n    function transferFrom(\r\n        address payable sender,\r\n        address payable recipient,\r\n        uint256 amount\r\n    ) external payable returns (bool) {\r\n        _transfer(sender, recipient, amount);\r\n        //_approve(sender, _msgSender(), _allowances[sender][_msgSender()].sub(amount, \"BEP20: transfer amount exceeds allowance\"));\r\n        return true;\r\n    }\r\n\r\n    function _transfer(\r\n        address payable sender,\r\n        address payable recipient,\r\n        uint256 amount\r\n    ) internal {\r\n        require(sender != address(0), \"BEP20: transfer from the zero address\");\r\n        require(recipient != address(0), \"BEP20: transfer to the zero address\");\r\n        //balances[sender] = balances[sender].sub(amount, \"BEP20: transfer amount exceeds balance\");\r\n        //balances[sender] -=amount;\r\n        //balances[recipient]+=amount;\r\n        // balances[recipient] = balances[recipient].add(amount);\r\n        emit Transfer(sender, recipient, amount);\r\n    }\r\n\r\n    function getBalance(address sender) public view returns (uint256) {\r\n        return address(sender).balance;\r\n    }\r\n}\r\n",
  "sourcePath": "C:\\Esha\\SchoolWork\\master-project\\final-project\\peershare-main\\peershare\\backend\\blockchain\\contracts\\Peershare.sol",
  "compiler": {
    "name": "solc",
    "version": "0.5.16+commit.9c3226ce.Emscripten.clang"
  },
  "schemaVersion": "3.4.10",
  "updatedAt": "2022-11-20T21:53:12.575Z",
  "networkType": "ethereum",
  "devdoc": {
    "methods": {}
  },
  "userdoc": {
    "methods": {}
  }
}