{
  "contractName": "Peershare",
  "abi": [
    {
      "anonymous": false,
      "inputs": [
        {
          "indexed": false,
          "internalType": "bytes",
          "name": "ownerSignature",
          "type": "bytes"
        },
        {
          "indexed": false,
          "internalType": "bytes32",
          "name": "carHash",
          "type": "bytes32"
        }
      ],
      "name": "AddCar",
      "type": "event"
    },
    {
      "anonymous": false,
      "inputs": [
        {
          "indexed": true,
          "internalType": "address",
          "name": "user",
          "type": "address"
        }
      ],
      "name": "AddUser",
      "type": "event"
    },
    {
      "anonymous": false,
      "inputs": [
        {
          "indexed": false,
          "internalType": "bytes",
          "name": "borrowerSignature",
          "type": "bytes"
        },
        {
          "indexed": false,
          "internalType": "bytes32",
          "name": "carHash",
          "type": "bytes32"
        }
      ],
      "name": "RentCar",
      "type": "event"
    },
    {
      "anonymous": false,
      "inputs": [
        {
          "indexed": false,
          "internalType": "bytes",
          "name": "borrowerSignature",
          "type": "bytes"
        },
        {
          "indexed": false,
          "internalType": "bytes32",
          "name": "carHash",
          "type": "bytes32"
        }
      ],
      "name": "ReturnCar",
      "type": "event"
    },
    {
      "anonymous": false,
      "inputs": [
        {
          "indexed": true,
          "internalType": "address",
          "name": "from",
          "type": "address"
        },
        {
          "indexed": true,
          "internalType": "address",
          "name": "to",
          "type": "address"
        },
        {
          "indexed": false,
          "internalType": "uint256",
          "name": "value",
          "type": "uint256"
        }
      ],
      "name": "Transfer",
      "type": "event"
    },
    {
      "constant": true,
      "inputs": [
        {
          "internalType": "address",
          "name": "",
          "type": "address"
        }
      ],
      "name": "activeUsers",
      "outputs": [
        {
          "internalType": "bool",
          "name": "",
          "type": "bool"
        }
      ],
      "payable": false,
      "stateMutability": "view",
      "type": "function"
    },
    {
      "constant": true,
      "inputs": [
        {
          "internalType": "bytes32",
          "name": "",
          "type": "bytes32"
        }
      ],
      "name": "borrowerSignature",
      "outputs": [
        {
          "internalType": "bytes",
          "name": "",
          "type": "bytes"
        }
      ],
      "payable": false,
      "stateMutability": "view",
      "type": "function"
    },
    {
      "constant": true,
      "inputs": [
        {
          "internalType": "bytes32",
          "name": "",
          "type": "bytes32"
        }
      ],
      "name": "ownerSignature",
      "outputs": [
        {
          "internalType": "bytes",
          "name": "",
          "type": "bytes"
        }
      ],
      "payable": false,
      "stateMutability": "view",
      "type": "function"
    },
    {
      "constant": true,
      "inputs": [
        {
          "internalType": "address",
          "name": "",
          "type": "address"
        }
      ],
      "name": "userSignature",
      "outputs": [
        {
          "internalType": "string",
          "name": "",
          "type": "string"
        }
      ],
      "payable": false,
      "stateMutability": "view",
      "type": "function"
    },
    {
      "constant": true,
      "inputs": [],
      "name": "getUserCount",
      "outputs": [
        {
          "internalType": "uint256",
          "name": "",
          "type": "uint256"
        }
      ],
      "payable": false,
      "stateMutability": "view",
      "type": "function"
    },
    {
      "constant": true,
      "inputs": [
        {
          "internalType": "address",
          "name": "ethereumAddress",
          "type": "address"
        }
      ],
      "name": "getUser",
      "outputs": [
        {
          "internalType": "uint256",
          "name": "",
          "type": "uint256"
        }
      ],
      "payable": false,
      "stateMutability": "view",
      "type": "function"
    },
    {
      "constant": false,
      "inputs": [
        {
          "internalType": "address",
          "name": "ethereumAddress",
          "type": "address"
        },
        {
          "internalType": "string",
          "name": "userHash",
          "type": "string"
        }
      ],
      "name": "addUser",
      "outputs": [
        {
          "internalType": "bool",
          "name": "",
          "type": "bool"
        }
      ],
      "payable": false,
      "stateMutability": "nonpayable",
      "type": "function"
    },
    {
      "constant": false,
      "inputs": [
        {
          "internalType": "bytes32",
          "name": "carHash",
          "type": "bytes32"
        },
        {
          "internalType": "bytes",
          "name": "signature",
          "type": "bytes"
        }
      ],
      "name": "addCar",
      "outputs": [
        {
          "internalType": "bool",
          "name": "",
          "type": "bool"
        }
      ],
      "payable": false,
      "stateMutability": "nonpayable",
      "type": "function"
    },
    {
      "constant": false,
      "inputs": [
        {
          "internalType": "bytes32",
          "name": "carHash",
          "type": "bytes32"
        },
        {
          "internalType": "address",
          "name": "ownerAddress",
          "type": "address"
        },
        {
          "internalType": "bytes",
          "name": "signature",
          "type": "bytes"
        }
      ],
      "name": "rentCar",
      "outputs": [
        {
          "internalType": "bool",
          "name": "",
          "type": "bool"
        }
      ],
      "payable": false,
      "stateMutability": "nonpayable",
      "type": "function"
    },
    {
      "constant": false,
      "inputs": [
        {
          "internalType": "bytes32",
          "name": "carHash",
          "type": "bytes32"
        },
        {
          "internalType": "address",
          "name": "ownerAddress",
          "type": "address"
        }
      ],
      "name": "returnCar",
      "outputs": [
        {
          "internalType": "bool",
          "name": "",
          "type": "bool"
        }
      ],
      "payable": false,
      "stateMutability": "nonpayable",
      "type": "function"
    },
    {
      "constant": false,
      "inputs": [
        {
          "internalType": "address payable",
          "name": "sender",
          "type": "address"
        },
        {
          "internalType": "address payable",
          "name": "recipient",
          "type": "address"
        },
        {
          "internalType": "uint256",
          "name": "amount",
          "type": "uint256"
        }
      ],
      "name": "transferFrom",
      "outputs": [
        {
          "internalType": "bool",
          "name": "",
          "type": "bool"
        }
      ],
      "payable": true,
      "stateMutability": "payable",
      "type": "function"
    },
    {
      "constant": true,
      "inputs": [
        {
          "internalType": "address",
          "name": "sender",
          "type": "address"
        }
      ],
      "name": "getBalance",
      "outputs": [
        {
          "internalType": "uint256",
          "name": "",
          "type": "uint256"
        }
      ],
      "payable": false,
      "stateMutability": "view",
      "type": "function"
    }
  ],
  "bytecode": "0x6080604052600060025534801561001557600080fd5b50611ab5806100256000396000f3fe6080604052600436106100a75760003560e01c8063b5cb15f711610064578063b5cb15f714610488578063bbeae388146104b3578063d2d7f7ba1461059d578063e00f3eba146106a7578063eb0eb8ab1461075b578063f8b2cb4f146107c4576100a7565b806311d08980146100ac57806323b872dd1461011f5780634b68d431146101a5578063617fb232146102a55780636f77926b1461036f578063b458262c146103d4575b600080fd5b3480156100b857600080fd5b50610105600480360360408110156100cf57600080fd5b8101908080359060200190929190803573ffffffffffffffffffffffffffffffffffffffff169060200190929190505050610829565b604051808215151515815260200191505060405180910390f35b61018b6004803603606081101561013557600080fd5b81019080803573ffffffffffffffffffffffffffffffffffffffff169060200190929190803573ffffffffffffffffffffffffffffffffffffffff16906020019092919080359060200190929190505050610c6c565b604051808215151515815260200191505060405180910390f35b3480156101b157600080fd5b5061028b600480360360408110156101c857600080fd5b81019080803573ffffffffffffffffffffffffffffffffffffffff1690602001909291908035906020019064010000000081111561020557600080fd5b82018360208201111561021757600080fd5b8035906020019184600183028401116401000000008311171561023957600080fd5b91908080601f016020809104026020016040519081016040528093929190818152602001838380828437600081840152601f19601f820116905080830192505050505050509192919290505050610c84565b604051808215151515815260200191505060405180910390f35b3480156102b157600080fd5b506102f4600480360360208110156102c857600080fd5b81019080803573ffffffffffffffffffffffffffffffffffffffff169060200190929190505050610d89565b6040518080602001828103825283818151815260200191508051906020019080838360005b83811015610334578082015181840152602081019050610319565b50505050905090810190601f1680156103615780820380516001836020036101000a031916815260200191505b509250505060405180910390f35b34801561037b57600080fd5b506103be6004803603602081101561039257600080fd5b81019080803573ffffffffffffffffffffffffffffffffffffffff169060200190929190505050610e39565b6040518082815260200191505060405180910390f35b3480156103e057600080fd5b5061040d600480360360208110156103f757600080fd5b8101908080359060200190929190505050610ea0565b6040518080602001828103825283818151815260200191508051906020019080838360005b8381101561044d578082015181840152602081019050610432565b50505050905090810190601f16801561047a5780820380516001836020036101000a031916815260200191505b509250505060405180910390f35b34801561049457600080fd5b5061049d610f50565b6040518082815260200191505060405180910390f35b3480156104bf57600080fd5b50610583600480360360408110156104d657600080fd5b8101908080359060200190929190803590602001906401000000008111156104fd57600080fd5b82018360208201111561050f57600080fd5b8035906020019184600183028401116401000000008311171561053157600080fd5b91908080601f016020809104026020016040519081016040528093929190818152602001838380828437600081840152601f19601f820116905080830192505050505050509192919290505050610f5a565b604051808215151515815260200191505060405180910390f35b3480156105a957600080fd5b5061068d600480360360608110156105c057600080fd5b8101908080359060200190929190803573ffffffffffffffffffffffffffffffffffffffff1690602001909291908035906020019064010000000081111561060757600080fd5b82018360208201111561061957600080fd5b8035906020019184600183028401116401000000008311171561063b57600080fd5b91908080601f016020809104026020016040519081016040528093929190818152602001838380828437600081840152601f19601f820116905080830192505050505050509192919290505050611129565b604051808215151515815260200191505060405180910390f35b3480156106b357600080fd5b506106e0600480360360208110156106ca57600080fd5b810190808035906020019092919050505061149c565b6040518080602001828103825283818151815260200191508051906020019080838360005b83811015610720578082015181840152602081019050610705565b50505050905090810190601f16801561074d5780820380516001836020036101000a031916815260200191505b509250505060405180910390f35b34801561076757600080fd5b506107aa6004803603602081101561077e57600080fd5b81019080803573ffffffffffffffffffffffffffffffffffffffff16906020019092919050505061154c565b604051808215151515815260200191505060405180910390f35b3480156107d057600080fd5b50610813600480360360208110156107e757600080fd5b81019080803573ffffffffffffffffffffffffffffffffffffffff16906020019092919050505061156c565b6040518082815260200191505060405180910390f35b6000806109466108958585604051602001808381526020018273ffffffffffffffffffffffffffffffffffffffff1673ffffffffffffffffffffffffffffffffffffffff1660601b8152601401925050506040516020818303038152906040528051906020012061158d565b600460008781526020019081526020016000208054600181600116156101000203166002900480601f01602080910402602001604051908101604052809291908181526020018280546001816001161561010002031660029004801561093c5780601f106109115761010080835404028352916020019161093c565b820191906000526020600020905b81548152906001019060200180831161091f57829003601f168201915b50505050506115e5565b90508273ffffffffffffffffffffffffffffffffffffffff168173ffffffffffffffffffffffffffffffffffffffff16146109cc576040517f08c379a0000000000000000000000000000000000000000000000000000000008152600401808060200182810382526021815260200180611a606021913960400191505060405180910390fd5b6000610ae8610a378633604051602001808381526020018273ffffffffffffffffffffffffffffffffffffffff1673ffffffffffffffffffffffffffffffffffffffff1660601b8152601401925050506040516020818303038152906040528051906020012061158d565b600360008881526020019081526020016000208054600181600116156101000203166002900480601f016020809104026020016040519081016040528092919081815260200182805460018160011615610100020316600290048015610ade5780601f10610ab357610100808354040283529160200191610ade565b820191906000526020600020905b815481529060010190602001808311610ac157829003601f168201915b50505050506115e5565b90503373ffffffffffffffffffffffffffffffffffffffff168173ffffffffffffffffffffffffffffffffffffffff1614610b6e576040517f08c379a0000000000000000000000000000000000000000000000000000000008152600401808060200182810382526024815260200180611a196024913960400191505060405180910390fd5b600360008681526020019081526020016000206000610b8d919061185f565b7f23325edaa25e4ffed85e5fe1ecd622d7898a858f3589abcce7bcbcb6b245940660036000878152602001908152602001600020866040518080602001838152602001828103825284818154600181600116156101000203166002900481526020019150805460018160011615610100020316600290048015610c515780601f10610c2657610100808354040283529160200191610c51565b820191906000526020600020905b815481529060010190602001808311610c3457829003601f168201915b5050935050505060405180910390a160019250505092915050565b6000610c798484846116e9565b600190509392505050565b600060016002540160028190555060018060008573ffffffffffffffffffffffffffffffffffffffff1673ffffffffffffffffffffffffffffffffffffffff16815260200190815260200160002060006101000a81548160ff021916908315150217905550816000808573ffffffffffffffffffffffffffffffffffffffff1673ffffffffffffffffffffffffffffffffffffffff1681526020019081526020016000209080519060200190610d3b9291906118a7565b508273ffffffffffffffffffffffffffffffffffffffff167f93e8ef53fa1762269961bdc02811e560fa10787f7f2f9c13f74ddad8221614d260405160405180910390a26001905092915050565b60006020528060005260406000206000915090508054600181600116156101000203166002900480601f016020809104026020016040519081016040528092919081815260200182805460018160011615610100020316600290048015610e315780601f10610e0657610100808354040283529160200191610e31565b820191906000526020600020905b815481529060010190602001808311610e1457829003601f168201915b505050505081565b6000600160008373ffffffffffffffffffffffffffffffffffffffff1673ffffffffffffffffffffffffffffffffffffffff16815260200190815260200160002060009054906101000a900460ff1615610e965760009050610e9b565b600190505b919050565b60046020528060005260406000206000915090508054600181600116156101000203166002900480601f016020809104026020016040519081016040528092919081815260200182805460018160011615610100020316600290048015610f485780601f10610f1d57610100808354040283529160200191610f48565b820191906000526020600020905b815481529060010190602001808311610f2b57829003601f168201915b505050505081565b6000600254905090565b600080610fcc610fc68533604051602001808381526020018273ffffffffffffffffffffffffffffffffffffffff1673ffffffffffffffffffffffffffffffffffffffff1660601b8152601401925050506040516020818303038152906040528051906020012061158d565b846115e5565b90503373ffffffffffffffffffffffffffffffffffffffff168173ffffffffffffffffffffffffffffffffffffffff1614611052576040517f08c379a00000000000000000000000000000000000000000000000000000000081526004018080602001828103825260278152602001806119cd6027913960400191505060405180910390fd5b82600460008681526020019081526020016000209080519060200190611079929190611927565b507f310ef772e7b2317ce82d34c9206cb492cd618b2672a97821735b11ac7860acc483856040518080602001838152602001828103825284818151815260200191508051906020019080838360005b838110156110e35780820151818401526020810190506110c8565b50505050905090810190601f1680156111105780820380516001836020036101000a031916815260200191505b50935050505060405180910390a1600191505092915050565b6000806112466111958686604051602001808381526020018273ffffffffffffffffffffffffffffffffffffffff1673ffffffffffffffffffffffffffffffffffffffff1660601b8152601401925050506040516020818303038152906040528051906020012061158d565b600460008881526020019081526020016000208054600181600116156101000203166002900480601f01602080910402602001604051908101604052809291908181526020018280546001816001161561010002031660029004801561123c5780601f106112115761010080835404028352916020019161123c565b820191906000526020600020905b81548152906001019060200180831161121f57829003601f168201915b50505050506115e5565b90508373ffffffffffffffffffffffffffffffffffffffff168173ffffffffffffffffffffffffffffffffffffffff16146112cc576040517f08c379a0000000000000000000000000000000000000000000000000000000008152600401808060200182810382526021815260200180611a606021913960400191505060405180910390fd5b600061133d6113378733604051602001808381526020018273ffffffffffffffffffffffffffffffffffffffff1673ffffffffffffffffffffffffffffffffffffffff1660601b8152601401925050506040516020818303038152906040528051906020012061158d565b856115e5565b90503373ffffffffffffffffffffffffffffffffffffffff168173ffffffffffffffffffffffffffffffffffffffff16146113c3576040517f08c379a00000000000000000000000000000000000000000000000000000000081526004018080602001828103825260278152602001806119cd6027913960400191505060405180910390fd5b836003600088815260200190815260200160002090805190602001906113ea929190611927565b507fa2d915934bacfcdfeaafa4c684d7e06435d1e2325665df7d0128d8a2978740f584876040518080602001838152602001828103825284818151815260200191508051906020019080838360005b83811015611454578082015181840152602081019050611439565b50505050905090810190601f1680156114815780820380516001836020036101000a031916815260200191505b50935050505060405180910390a16001925050509392505050565b60036020528060005260406000206000915090508054600181600116156101000203166002900480601f0160208091040260200160405190810160405280929190818152602001828054600181600116156101000203166002900480156115445780601f1061151957610100808354040283529160200191611544565b820191906000526020600020905b81548152906001019060200180831161152757829003601f168201915b505050505081565b60016020528060005260406000206000915054906101000a900460ff1681565b60008173ffffffffffffffffffffffffffffffffffffffff16319050919050565b60008160405160200180807f19457468657265756d205369676e6564204d6573736167653a0a333200000000815250601c01828152602001915050604051602081830303815290604052805190602001209050919050565b600060418251146115f957600090506116e3565b60008060006020850151925060408501519150606085015160001a90507f7fffffffffffffffffffffffffffffff5d576e7357a4501ddfe92f46681b20a08260001c111561164d57600093505050506116e3565b601b8160ff16141580156116655750601c8160ff1614155b1561167657600093505050506116e3565b60018682858560405160008152602001604052604051808581526020018460ff1660ff1681526020018381526020018281526020019450505050506020604051602081039080840390855afa1580156116d3573d6000803e3d6000fd5b5050506020604051035193505050505b92915050565b600073ffffffffffffffffffffffffffffffffffffffff168373ffffffffffffffffffffffffffffffffffffffff16141561176f576040517f08c379a00000000000000000000000000000000000000000000000000000000081526004018080602001828103825260258152602001806119f46025913960400191505060405180910390fd5b600073ffffffffffffffffffffffffffffffffffffffff168273ffffffffffffffffffffffffffffffffffffffff1614156117f5576040517f08c379a0000000000000000000000000000000000000000000000000000000008152600401808060200182810382526023815260200180611a3d6023913960400191505060405180910390fd5b8173ffffffffffffffffffffffffffffffffffffffff168373ffffffffffffffffffffffffffffffffffffffff167fddf252ad1be2c89b69c2b068fc378daa952ba7f163c4a11628f55a4df523b3ef836040518082815260200191505060405180910390a3505050565b50805460018160011615610100020316600290046000825580601f1061188557506118a4565b601f0160209004906000526020600020908101906118a391906119a7565b5b50565b828054600181600116156101000203166002900490600052602060002090601f016020900481019282601f106118e857805160ff1916838001178555611916565b82800160010185558215611916579182015b828111156119155782518255916020019190600101906118fa565b5b50905061192391906119a7565b5090565b828054600181600116156101000203166002900490600052602060002090601f016020900481019282601f1061196857805160ff1916838001178555611996565b82800160010185558215611996579182015b8281111561199557825182559160200191906001019061197a565b5b5090506119a391906119a7565b5090565b6119c991905b808211156119c55760008160009055506001016119ad565b5090565b9056fe556e617574686f7269736564207369676e657220686173206265656e206465637465637465642e42455032303a207472616e736665722066726f6d20746865207a65726f206164647265737343617220646f6573206e6f742062656c6f6e6720746f2074686520626f72726f7765722e42455032303a207472616e7366657220746f20746865207a65726f206164647265737343617220646f6573206e6f742062656c6f6e6720746f20746865206f776e65722ea265627a7a7231582035584335b2a2e04f544fa22eac145d88411bfe45907f34ec28eac1f45c428f1c64736f6c63430005100032",
  "source": "// SPDX-License-Identifier: MIT\r\n// pragma solidity ^0.8.11;\r\npragma solidity ^0.5.0;\r\nimport \"./ECDSA.sol\";\r\n\r\n// smart contract to add new user, new cars and any ride on the blockchain\r\ncontract Peershare {\r\n    // state variables\r\n    //user registration\r\n    mapping(address => string) public userSignature;\r\n    mapping(address => bool) public activeUsers;\r\n    uint256 userCount = 0;\r\n    //car management\r\n    mapping(bytes32 => bytes) public borrowerSignature;\r\n    mapping(bytes32 => bytes) public ownerSignature;\r\n\r\n    // payment transaction\r\n    mapping(address => uint256) private balances;\r\n    event Transfer(address indexed from, address indexed to, uint256 value);\r\n    event AddUser(address indexed user);\r\n    event AddCar(bytes ownerSignature, bytes32 carHash);\r\n    event RentCar(bytes borrowerSignature, bytes32 carHash);\r\n    event ReturnCar(bytes borrowerSignature, bytes32 carHash);\r\n\r\n    function getUserCount() public view returns (uint256) {\r\n        return uint256(userCount);\r\n    }\r\n\r\n    function getUser(address ethereumAddress) public view returns (uint256) {\r\n        if (activeUsers[ethereumAddress]) {\r\n            return uint256(0);\r\n        }\r\n        return uint256(1);\r\n    }\r\n\r\n    function addUser(address ethereumAddress, string memory userHash)\r\n        public\r\n        returns (bool)\r\n    {\r\n        // Add user address\r\n        userCount = userCount + 1;\r\n        activeUsers[ethereumAddress] = true;\r\n\r\n        //storing signature\r\n        userSignature[ethereumAddress] = userHash;\r\n\r\n        emit AddUser(ethereumAddress);\r\n        return true;\r\n    }\r\n\r\n    function addCar(bytes32 carHash, bytes memory signature)\r\n        public\r\n        returns (bool)\r\n    {\r\n        // Get signer from signature\r\n        address signer = ECDSA.recover(\r\n            ECDSA.toEthSignedMessageHash(\r\n                keccak256(abi.encodePacked(carHash, msg.sender))\r\n            ),\r\n            signature\r\n        );\r\n        require(\r\n            signer == msg.sender,\r\n            \"Unauthorised signer has been dectected.\"\r\n        );\r\n\r\n        ownerSignature[carHash] = signature;\r\n        emit AddCar(signature, carHash);\r\n        return bool(true);\r\n    }\r\n\r\n    function rentCar(\r\n        bytes32 carHash,\r\n        address ownerAddress,\r\n        bytes memory signature\r\n    ) public returns (bool) {\r\n        // Get address from owner signature\r\n        address _ownerAddress = ECDSA.recover(\r\n            ECDSA.toEthSignedMessageHash(\r\n                keccak256(abi.encodePacked(carHash, ownerAddress))\r\n            ),\r\n            ownerSignature[carHash]\r\n        );\r\n\r\n        // Verify the car belong to the right owner\r\n        require(\r\n            _ownerAddress == ownerAddress,\r\n            \"Car does not belong to the owner.\"\r\n        );\r\n\r\n        // Get signer from signature\r\n        address signer = ECDSA.recover(\r\n            ECDSA.toEthSignedMessageHash(\r\n                keccak256(abi.encodePacked(carHash, msg.sender))\r\n            ),\r\n            signature\r\n        );\r\n\r\n        // Verify the borrower address\r\n        require(\r\n            signer == msg.sender,\r\n            \"Unauthorised signer has been dectected.\"\r\n        );\r\n\r\n        // Add borrower signature\r\n        borrowerSignature[carHash] = signature;\r\n        emit RentCar(signature, carHash);\r\n        return true;\r\n    }\r\n\r\n    function returnCar(bytes32 carHash, address ownerAddress)\r\n        public\r\n        returns (bool)\r\n    {\r\n        // Get address from owner signature\r\n        address _ownerAddress = ECDSA.recover(\r\n            ECDSA.toEthSignedMessageHash(\r\n                keccak256(abi.encodePacked(carHash, ownerAddress))\r\n            ),\r\n            ownerSignature[carHash]\r\n        );\r\n\r\n        // Verify the car belong to the right owner\r\n        require(\r\n            _ownerAddress == ownerAddress,\r\n            \"Car does not belong to the owner.\"\r\n        );\r\n\r\n        // Get address from borrower signature\r\n        address _borrowerAddress = ECDSA.recover(\r\n            ECDSA.toEthSignedMessageHash(\r\n                keccak256(abi.encodePacked(carHash, msg.sender))\r\n            ),\r\n            borrowerSignature[carHash]\r\n        );\r\n\r\n        // Verify the car returning belong to the right borrower\r\n        require(\r\n            _borrowerAddress == msg.sender,\r\n            \"Car does not belong to the borrower.\"\r\n        );\r\n\r\n        // Delete the borrower signature for the car\r\n        delete borrowerSignature[carHash];\r\n        emit ReturnCar(borrowerSignature[carHash], carHash);\r\n        return true;\r\n    }\r\n\r\n    function transferFrom(\r\n        address payable sender,\r\n        address payable recipient,\r\n        uint256 amount\r\n    ) external payable returns (bool) {\r\n        _transfer(sender, recipient, amount);\r\n        //_approve(sender, _msgSender(), _allowances[sender][_msgSender()].sub(amount, \"BEP20: transfer amount exceeds allowance\"));\r\n        return true;\r\n    }\r\n\r\n    function _transfer(\r\n        address payable sender,\r\n        address payable recipient,\r\n        uint256 amount\r\n    ) internal {\r\n        require(sender != address(0), \"BEP20: transfer from the zero address\");\r\n        require(recipient != address(0), \"BEP20: transfer to the zero address\");\r\n        //balances[sender] = balances[sender].sub(amount, \"BEP20: transfer amount exceeds balance\");\r\n        //balances[sender] -=amount;\r\n        //balances[recipient]+=amount;\r\n        // balances[recipient] = balances[recipient].add(amount);\r\n        emit Transfer(sender, recipient, amount);\r\n    }\r\n\r\n    function getBalance(address sender) public view returns (uint256) {\r\n        return address(sender).balance;\r\n    }\r\n}\r\n",
  "sourcePath": "C:\\Esha\\SchoolWork\\master-project\\final-project\\peershare-main\\peershare\\backend\\blockchain\\contracts\\Peershare.sol",
  "compiler": {
    "name": "solc",
    "version": "0.5.16+commit.9c3226ce.Emscripten.clang"
  },
  "schemaVersion": "3.4.10",
  "updatedAt": "2022-11-23T08:53:49.662Z",
  "networkType": "ethereum",
  "devdoc": {
    "methods": {}
  },
  "userdoc": {
    "methods": {}
  }
}