{
  "contractName": "Peershare",
  "abi": [
    {
      "inputs": [],
      "stateMutability": "nonpayable",
      "type": "constructor"
    },
    {
      "inputs": [],
      "name": "getUsersInSystem",
      "outputs": [
        {
          "internalType": "uint256",
          "name": "",
          "type": "uint256"
        }
      ],
      "stateMutability": "view",
      "type": "function",
      "constant": true
    },
    {
      "inputs": [
        {
          "internalType": "bytes32",
          "name": "userHash",
          "type": "bytes32"
        },
        {
          "internalType": "bytes",
          "name": "signature",
          "type": "bytes"
        }
      ],
      "name": "addUser",
      "outputs": [
        {
          "internalType": "bool",
          "name": "",
          "type": "bool"
        }
      ],
      "stateMutability": "nonpayable",
      "type": "function"
    }
  ],
  "bytecode": "0x6080604052600060015534801561001557600080fd5b5061051f806100256000396000f3fe608060405234801561001057600080fd5b50600436106100365760003560e01c80636d7b95b51461003b5780636e9b749d1461006b575b600080fd5b6100556004803603810190610050919061033d565b610089565b60405161006291906103b4565b60405180910390f35b610073610100565b60405161008091906103e8565b60405180910390f35b60008060008085815260200190815260200160002080546100a990610432565b905011156100ba57600090506100fa565b8160008085815260200190815260200160002090805190602001906100e092919061010a565b50600180546100ef9190610493565b600181905550600190505b92915050565b6000600154905090565b82805461011690610432565b90600052602060002090601f016020900481019282610138576000855561017f565b82601f1061015157805160ff191683800117855561017f565b8280016001018555821561017f579182015b8281111561017e578251825591602001919060010190610163565b5b50905061018c9190610190565b5090565b5b808211156101a9576000816000905550600101610191565b5090565b6000604051905090565b600080fd5b600080fd5b6000819050919050565b6101d4816101c1565b81146101df57600080fd5b50565b6000813590506101f1816101cb565b92915050565b600080fd5b600080fd5b6000601f19601f8301169050919050565b7f4e487b7100000000000000000000000000000000000000000000000000000000600052604160045260246000fd5b61024a82610201565b810181811067ffffffffffffffff8211171561026957610268610212565b5b80604052505050565b600061027c6101ad565b90506102888282610241565b919050565b600067ffffffffffffffff8211156102a8576102a7610212565b5b6102b182610201565b9050602081019050919050565b82818337600083830152505050565b60006102e06102db8461028d565b610272565b9050828152602081018484840111156102fc576102fb6101fc565b5b6103078482856102be565b509392505050565b600082601f830112610324576103236101f7565b5b81356103348482602086016102cd565b91505092915050565b60008060408385031215610354576103536101b7565b5b6000610362858286016101e2565b925050602083013567ffffffffffffffff811115610383576103826101bc565b5b61038f8582860161030f565b9150509250929050565b60008115159050919050565b6103ae81610399565b82525050565b60006020820190506103c960008301846103a5565b92915050565b6000819050919050565b6103e2816103cf565b82525050565b60006020820190506103fd60008301846103d9565b92915050565b7f4e487b7100000000000000000000000000000000000000000000000000000000600052602260045260246000fd5b6000600282049050600182168061044a57607f821691505b6020821081141561045e5761045d610403565b5b50919050565b7f4e487b7100000000000000000000000000000000000000000000000000000000600052601160045260246000fd5b600061049e826103cf565b91506104a9836103cf565b9250827fffffffffffffffffffffffffffffffffffffffffffffffffffffffffffffffff038211156104de576104dd610464565b5b82820190509291505056fea2646970667358221220525527185efb91fd581a2d4119908bbf6c10515cd506367de4adf2809f478e7564736f6c634300080b0033",
  "immutableReferences": {},
  "source": "// SPDX-License-Identifier: MIT\r\npragma solidity ^0.8.11;\r\n\r\n// smart contract to add new user, new cars and any ride on the blockchain\r\ncontract Peershare {\r\n    // state variables\r\n    mapping(bytes32 => bytes) userSignature;\r\n    uint256 userCount = 0;\r\n\r\n    constructor() {\r\n        //if we need any state variables to be initialized\r\n    }\r\n\r\n    function getUsersInSystem() public view returns (uint256) {\r\n        return uint256(userCount);\r\n    }\r\n\r\n    function addUser(bytes32 userHash, bytes memory signature)\r\n        public\r\n        returns (bool)\r\n    {\r\n        // Verify if the user is unique in blockchain\r\n        if (bytes(userSignature[userHash]).length > 0) {\r\n            //console.log(userSignature[userHash]);\r\n            //user already exists\r\n            return false;\r\n        }\r\n\r\n        // Add user signature\r\n        userSignature[userHash] = signature;\r\n        userCount = userCount + 1;\r\n\r\n        return true;\r\n    }\r\n\r\n    // TODO: add new car to blockchain\r\n}\r\n",
  "sourcePath": "C:\\Esha\\SchoolWork\\master-project\\final-project\\peershare\\backend\\blockchain\\contracts\\Peershare.sol",
  "compiler": {
    "name": "solc",
    "version": "0.8.11+commit.d7f03943.Emscripten.clang"
  },
  "schemaVersion": "3.4.10",
  "updatedAt": "2022-10-07T01:57:27.995Z",
  "networkType": "ethereum",
  "devdoc": {
    "kind": "dev",
    "methods": {},
    "version": 1
  },
  "userdoc": {
    "kind": "user",
    "methods": {},
    "version": 1
  }
}