{
  "contractName": "Peershare",
  "abi": [
    {
      "constant": true,
      "inputs": [
        {
          "name": "",
          "type": "int256"
        }
      ],
      "name": "borrowerSignature",
      "outputs": [
        {
          "name": "",
          "type": "int256"
        }
      ],
      "payable": false,
      "stateMutability": "view",
      "type": "function",
      "signature": "0x0bf89d4d"
    },
    {
      "constant": true,
      "inputs": [
        {
          "name": "",
          "type": "uint256"
        }
      ],
      "name": "ownerSignature",
      "outputs": [
        {
          "name": "",
          "type": "int256"
        }
      ],
      "payable": false,
      "stateMutability": "view",
      "type": "function",
      "signature": "0x7004bcd3"
    },
    {
      "constant": true,
      "inputs": [],
      "name": "getUsersInSystem",
      "outputs": [
        {
          "name": "",
          "type": "uint256"
        }
      ],
      "payable": false,
      "stateMutability": "view",
      "type": "function",
      "signature": "0x6e9b749d"
    },
    {
      "constant": false,
      "inputs": [
        {
          "name": "userHash",
          "type": "bytes32"
        },
        {
          "name": "signature",
          "type": "bytes"
        }
      ],
      "name": "addUser",
      "outputs": [
        {
          "name": "",
          "type": "bool"
        }
      ],
      "payable": false,
      "stateMutability": "nonpayable",
      "type": "function",
      "signature": "0x6d7b95b5"
    },
    {
      "constant": false,
      "inputs": [
        {
          "name": "user_id",
          "type": "int256"
        }
      ],
      "name": "addCar",
      "outputs": [
        {
          "name": "",
          "type": "bool"
        }
      ],
      "payable": false,
      "stateMutability": "nonpayable",
      "type": "function",
      "signature": "0x71bc3300"
    },
    {
      "constant": false,
      "inputs": [
        {
          "name": "user_id",
          "type": "int256"
        },
        {
          "name": "car_id",
          "type": "int256"
        }
      ],
      "name": "rentCar",
      "outputs": [
        {
          "name": "",
          "type": "bool"
        }
      ],
      "payable": false,
      "stateMutability": "nonpayable",
      "type": "function",
      "signature": "0x9cb4ec4f"
    }
  ],
  "bytecode": "0x6080604052600060035534801561001557600080fd5b506104c9806100256000396000f3fe608060405260043610610078576000357c0100000000000000000000000000000000000000000000000000000000900463ffffffff1680630bf89d4d1461007d5780636d7b95b5146100cc5780636e9b749d146101b65780637004bcd3146101e157806371bc3300146102305780639cb4ec4f14610283575b600080fd5b34801561008957600080fd5b506100b6600480360360208110156100a057600080fd5b81019080803590602001909291905050506102e0565b6040518082815260200191505060405180910390f35b3480156100d857600080fd5b5061019c600480360360408110156100ef57600080fd5b81019080803590602001909291908035906020019064010000000081111561011657600080fd5b82018360208201111561012857600080fd5b8035906020019184600183028401116401000000008311171561014a57600080fd5b91908080601f016020809104026020016040519081016040528093929190818152602001838380828437600081840152601f19601f8201169050808301925050505050505091929192905050506102f8565b604051808215151515815260200191505060405180910390f35b3480156101c257600080fd5b506101cb610371565b6040518082815260200191505060405180910390f35b3480156101ed57600080fd5b5061021a6004803603602081101561020457600080fd5b810190808035906020019092919050505061037b565b6040518082815260200191505060405180910390f35b34801561023c57600080fd5b506102696004803603602081101561025357600080fd5b810190808035906020019092919050505061039e565b604051808215151515815260200191505060405180910390f35b34801561028f57600080fd5b506102c6600480360360408110156102a657600080fd5b8101908080359060200190929190803590602001909291905050506103d4565b604051808215151515815260200191505060405180910390f35b60016020528060005260406000206000915090505481565b600080600260008581526020019081526020016000208054600181600116156101000203166002900490501115610332576000905061036b565b816002600085815260200190815260200160002090805190602001906103599291906103f8565b50600160035401600381905550600190505b92915050565b6000600354905090565b60008181548110151561038a57fe5b906000526020600020016000915090505481565b60008082908060018154018082558091505090600182039060005260206000200160009091929091909150555060019050919050565b60008160016000858152602001908152602001600020819055506001905092915050565b828054600181600116156101000203166002900490600052602060002090601f016020900481019282601f1061043957805160ff1916838001178555610467565b82800160010185558215610467579182015b8281111561046657825182559160200191906001019061044b565b5b5090506104749190610478565b5090565b61049a91905b8082111561049657600081600090555060010161047e565b5090565b9056fea165627a7a72305820a468b5a827a08f84eda3e3ae36e1c8f1e593a923c9685eb52cbebe9a60815d5c0029",
  "source": "// SPDX-License-Identifier: MIT\n// pragma solidity ^0.8.11;\npragma solidity >=0.4.22 <0.9.0;\n\n// smart contract to add new user, new cars and any ride on the blockchain\ncontract Peershare {\n    // state variables\n    int256[] public ownerSignature;\n    mapping(int256 => int256) public borrowerSignature;\n    mapping(bytes32 => bytes) userSignature;\n    uint256 userCount = 0;\n\n    function getUsersInSystem() public view returns (uint256) {\n        return uint256(userCount);\n    }\n\n    function addUser(bytes32 userHash, bytes memory signature)\n        public\n        returns (bool)\n    {\n        // Verify if the user is unique in blockchain\n        if (bytes(userSignature[userHash]).length > 0) {\n            //console.log(userSignature[userHash]);\n            //user already exists\n            return false;\n        }\n\n        // Add user signature\n        userSignature[userHash] = signature;\n        userCount = userCount + 1;\n\n        return true;\n    }\n\n    function addCar(int256 user_id) public returns (bool) {\n        ownerSignature.push(user_id);\n        return true;\n    }\n    function rentCar(int256 user_id,int256 car_id) public returns (bool) {\n        borrowerSignature[user_id]=car_id;\n        return true;\n    }\n\n    \n}\n",
  "sourcePath": "/Users/nehasihag/Downloads/peershare github/backend/blockchain/contracts/Peershare.sol",
  "compiler": {
    "name": "solc",
    "version": "0.5.0+commit.1d4f565a.Emscripten.clang"
  },
  "schemaVersion": "3.0.1",
  "updatedAt": "2022-10-26T18:25:17.611Z",
  "devdoc": {
    "methods": {}
  },
  "userdoc": {
    "methods": {}
  }
}