{
  "contractName": "Peershare",
  "abi": [
    {
      "constant": true,
      "inputs": [
        {
          "name": "",
          "type": "bytes32"
        }
      ],
      "name": "userSignature",
      "outputs": [
        {
          "name": "",
          "type": "bytes"
        }
      ],
      "payable": false,
      "stateMutability": "view",
      "type": "function",
      "signature": "0x431d23ae"
    },
    {
      "constant": true,
      "inputs": [
        {
          "name": "",
          "type": "uint256"
        }
      ],
      "name": "activeUsers",
      "outputs": [
        {
          "name": "",
          "type": "address"
        }
      ],
      "payable": false,
      "stateMutability": "view",
      "type": "function",
      "signature": "0x803ae518"
    },
    {
      "constant": true,
      "inputs": [
        {
          "name": "",
          "type": "bytes32"
        }
      ],
      "name": "ownerSignature",
      "outputs": [
        {
          "name": "",
          "type": "bytes"
        }
      ],
      "payable": false,
      "stateMutability": "view",
      "type": "function",
      "signature": "0xb458262c"
    },
    {
      "constant": true,
      "inputs": [
        {
          "name": "",
          "type": "bytes32"
        }
      ],
      "name": "borrowerSignature",
      "outputs": [
        {
          "name": "",
          "type": "bytes"
        }
      ],
      "payable": false,
      "stateMutability": "view",
      "type": "function",
      "signature": "0xe00f3eba"
    },
    {
      "anonymous": false,
      "inputs": [
        {
          "indexed": true,
          "name": "from",
          "type": "address"
        },
        {
          "indexed": true,
          "name": "to",
          "type": "address"
        },
        {
          "indexed": false,
          "name": "value",
          "type": "uint256"
        }
      ],
      "name": "Transfer",
      "type": "event",
      "signature": "0xddf252ad1be2c89b69c2b068fc378daa952ba7f163c4a11628f55a4df523b3ef"
    },
    {
      "anonymous": false,
      "inputs": [
        {
          "indexed": true,
          "name": "user",
          "type": "address"
        }
      ],
      "name": "AddUser",
      "type": "event",
      "signature": "0x93e8ef53fa1762269961bdc02811e560fa10787f7f2f9c13f74ddad8221614d2"
    },
    {
      "anonymous": false,
      "inputs": [
        {
          "indexed": false,
          "name": "ownerSignature",
          "type": "bytes"
        },
        {
          "indexed": false,
          "name": "carHash",
          "type": "bytes32"
        }
      ],
      "name": "AddCar",
      "type": "event",
      "signature": "0x310ef772e7b2317ce82d34c9206cb492cd618b2672a97821735b11ac7860acc4"
    },
    {
      "anonymous": false,
      "inputs": [
        {
          "indexed": false,
          "name": "borrowerSignature",
          "type": "bytes"
        },
        {
          "indexed": false,
          "name": "carHash",
          "type": "bytes32"
        }
      ],
      "name": "RentCar",
      "type": "event",
      "signature": "0xa2d915934bacfcdfeaafa4c684d7e06435d1e2325665df7d0128d8a2978740f5"
    },
    {
      "anonymous": false,
      "inputs": [
        {
          "indexed": false,
          "name": "borrowerSignature",
          "type": "bytes"
        },
        {
          "indexed": false,
          "name": "carHash",
          "type": "bytes32"
        }
      ],
      "name": "ReturnCar",
      "type": "event",
      "signature": "0x23325edaa25e4ffed85e5fe1ecd622d7898a858f3589abcce7bcbcb6b2459406"
    },
    {
      "constant": true,
      "inputs": [],
      "name": "getUserCount",
      "outputs": [
        {
          "name": "",
          "type": "uint256"
        }
      ],
      "payable": false,
      "stateMutability": "view",
      "type": "function",
      "signature": "0xb5cb15f7"
    },
    {
      "constant": true,
      "inputs": [
        {
          "name": "ethereumAddress",
          "type": "address"
        }
      ],
      "name": "getUser",
      "outputs": [
        {
          "name": "",
          "type": "uint256"
        }
      ],
      "payable": false,
      "stateMutability": "view",
      "type": "function",
      "signature": "0x6f77926b"
    },
    {
      "constant": false,
      "inputs": [
        {
          "name": "ethereumAddress",
          "type": "address"
        },
        {
          "name": "userHash",
          "type": "bytes32"
        },
        {
          "name": "signature",
          "type": "bytes"
        }
      ],
      "name": "addUser",
      "outputs": [
        {
          "name": "",
          "type": "bool"
        }
      ],
      "payable": false,
      "stateMutability": "nonpayable",
      "type": "function",
      "signature": "0x5d1dcf11"
    },
    {
      "constant": false,
      "inputs": [
        {
          "name": "carHash",
          "type": "bytes32"
        },
        {
          "name": "signature",
          "type": "bytes"
        }
      ],
      "name": "addCar",
      "outputs": [
        {
          "name": "",
          "type": "bool"
        }
      ],
      "payable": false,
      "stateMutability": "nonpayable",
      "type": "function",
      "signature": "0xbbeae388"
    },
    {
      "constant": false,
      "inputs": [
        {
          "name": "carHash",
          "type": "bytes32"
        },
        {
          "name": "ownerAddress",
          "type": "address"
        },
        {
          "name": "signature",
          "type": "bytes"
        }
      ],
      "name": "rentCar",
      "outputs": [
        {
          "name": "",
          "type": "bool"
        }
      ],
      "payable": false,
      "stateMutability": "nonpayable",
      "type": "function",
      "signature": "0xd2d7f7ba"
    },
    {
      "constant": false,
      "inputs": [
        {
          "name": "carHash",
          "type": "bytes32"
        },
        {
          "name": "ownerAddress",
          "type": "address"
        }
      ],
      "name": "returnCar",
      "outputs": [
        {
          "name": "",
          "type": "bool"
        }
      ],
      "payable": false,
      "stateMutability": "nonpayable",
      "type": "function",
      "signature": "0x11d08980"
    },
    {
      "constant": false,
      "inputs": [
        {
          "name": "sender",
          "type": "address"
        },
        {
          "name": "recipient",
          "type": "address"
        },
        {
          "name": "amount",
          "type": "uint256"
        }
      ],
      "name": "transferFrom",
      "outputs": [
        {
          "name": "",
          "type": "bool"
        }
      ],
      "payable": true,
      "stateMutability": "payable",
      "type": "function",
      "signature": "0x23b872dd"
    },
    {
      "constant": true,
      "inputs": [
        {
          "name": "sender",
          "type": "address"
        }
      ],
      "name": "getBalance",
      "outputs": [
        {
          "name": "",
          "type": "uint256"
        }
      ],
      "payable": false,
      "stateMutability": "view",
      "type": "function",
      "signature": "0xf8b2cb4f"
    }
  ],
  "bytecode": "0x6080604052600060025534801561001557600080fd5b50611bcb806100256000396000f3fe6080604052600436106100ba576000357c0100000000000000000000000000000000000000000000000000000000900463ffffffff16806311d08980146100bf57806323b872dd14610132578063431d23ae146101b85780635d1dcf111461026c5780636f77926b14610376578063803ae518146103db578063b458262c14610456578063b5cb15f71461050a578063bbeae38814610535578063d2d7f7ba1461061f578063e00f3eba14610729578063f8b2cb4f146107dd575b600080fd5b3480156100cb57600080fd5b50610118600480360360408110156100e257600080fd5b8101908080359060200190929190803573ffffffffffffffffffffffffffffffffffffffff169060200190929190505050610842565b604051808215151515815260200191505060405180910390f35b61019e6004803603606081101561014857600080fd5b81019080803573ffffffffffffffffffffffffffffffffffffffff169060200190929190803573ffffffffffffffffffffffffffffffffffffffff16906020019092919080359060200190929190505050610d27565b604051808215151515815260200191505060405180910390f35b3480156101c457600080fd5b506101f1600480360360208110156101db57600080fd5b8101908080359060200190929190505050610d3f565b6040518080602001828103825283818151815260200191508051906020019080838360005b83811015610231578082015181840152602081019050610216565b50505050905090810190601f16801561025e5780820380516001836020036101000a031916815260200191505b509250505060405180910390f35b34801561027857600080fd5b5061035c6004803603606081101561028f57600080fd5b81019080803573ffffffffffffffffffffffffffffffffffffffff16906020019092919080359060200190929190803590602001906401000000008111156102d657600080fd5b8201836020820111156102e857600080fd5b8035906020019184600183028401116401000000008311171561030a57600080fd5b91908080601f016020809104026020016040519081016040528093929190818152602001838380828437600081840152601f19601f820116905080830192505050505050509192919290505050610def565b604051808215151515815260200191505060405180910390f35b34801561038257600080fd5b506103c56004803603602081101561039957600080fd5b81019080803573ffffffffffffffffffffffffffffffffffffffff169060200190929190505050610ec6565b6040518082815260200191505060405180910390f35b3480156103e757600080fd5b50610414600480360360208110156103fe57600080fd5b8101908080359060200190929190505050610f60565b604051808273ffffffffffffffffffffffffffffffffffffffff1673ffffffffffffffffffffffffffffffffffffffff16815260200191505060405180910390f35b34801561046257600080fd5b5061048f6004803603602081101561047957600080fd5b8101908080359060200190929190505050610f93565b6040518080602001828103825283818151815260200191508051906020019080838360005b838110156104cf5780820151818401526020810190506104b4565b50505050905090810190601f1680156104fc5780820380516001836020036101000a031916815260200191505b509250505060405180910390f35b34801561051657600080fd5b5061051f611043565b6040518082815260200191505060405180910390f35b34801561054157600080fd5b506106056004803603604081101561055857600080fd5b81019080803590602001909291908035906020019064010000000081111561057f57600080fd5b82018360208201111561059157600080fd5b803590602001918460018302840111640100000000831117156105b357600080fd5b91908080601f016020809104026020016040519081016040528093929190818152602001838380828437600081840152601f19601f82011690508083019250505050505050919291929050505061104d565b604051808215151515815260200191505060405180910390f35b34801561062b57600080fd5b5061070f6004803603606081101561064257600080fd5b8101908080359060200190929190803573ffffffffffffffffffffffffffffffffffffffff1690602001909291908035906020019064010000000081111561068957600080fd5b82018360208201111561069b57600080fd5b803590602001918460018302840111640100000000831117156106bd57600080fd5b91908080601f016020809104026020016040519081016040528093929190818152602001838380828437600081840152601f19601f82011690508083019250505050505050919291929050505061126d565b604051808215151515815260200191505060405180910390f35b34801561073557600080fd5b506107626004803603602081101561074c57600080fd5b8101908080359060200190929190505050611682565b6040518080602001828103825283818151815260200191508051906020019080838360005b838110156107a2578082015181840152602081019050610787565b50505050905090810190601f1680156107cf5780820380516001836020036101000a031916815260200191505b509250505060405180910390f35b3480156107e957600080fd5b5061082c6004803603602081101561080057600080fd5b81019080803573ffffffffffffffffffffffffffffffffffffffff169060200190929190505050611732565b6040518082815260200191505060405180910390f35b60008061096b6108ba8585604051602001808381526020018273ffffffffffffffffffffffffffffffffffffffff1673ffffffffffffffffffffffffffffffffffffffff166c010000000000000000000000000281526014019250505060405160208183030381529060405280519060200120611753565b600460008781526020019081526020016000208054600181600116156101000203166002900480601f0160208091040260200160405190810160405280929190818152602001828054600181600116156101000203166002900480156109615780601f1061093657610100808354040283529160200191610961565b820191906000526020600020905b81548152906001019060200180831161094457829003601f168201915b50505050506117ab565b90508273ffffffffffffffffffffffffffffffffffffffff168173ffffffffffffffffffffffffffffffffffffffff16141515610a36576040517f08c379a00000000000000000000000000000000000000000000000000000000081526004018080602001828103825260218152602001807f43617220646f6573206e6f742062656c6f6e6720746f20746865206f776e657281526020017f2e0000000000000000000000000000000000000000000000000000000000000081525060400191505060405180910390fd5b6000610b5e610aad8633604051602001808381526020018273ffffffffffffffffffffffffffffffffffffffff1673ffffffffffffffffffffffffffffffffffffffff166c010000000000000000000000000281526014019250505060405160208183030381529060405280519060200120611753565b600360008881526020019081526020016000208054600181600116156101000203166002900480601f016020809104026020016040519081016040528092919081815260200182805460018160011615610100020316600290048015610b545780601f10610b2957610100808354040283529160200191610b54565b820191906000526020600020905b815481529060010190602001808311610b3757829003601f168201915b50505050506117ab565b90503373ffffffffffffffffffffffffffffffffffffffff168173ffffffffffffffffffffffffffffffffffffffff16141515610c29576040517f08c379a00000000000000000000000000000000000000000000000000000000081526004018080602001828103825260248152602001807f43617220646f6573206e6f742062656c6f6e6720746f2074686520626f72726f81526020017f7765722e0000000000000000000000000000000000000000000000000000000081525060400191505060405180910390fd5b600360008681526020019081526020016000206000610c489190611ab2565b7f23325edaa25e4ffed85e5fe1ecd622d7898a858f3589abcce7bcbcb6b245940660036000878152602001908152602001600020866040518080602001838152602001828103825284818154600181600116156101000203166002900481526020019150805460018160011615610100020316600290048015610d0c5780601f10610ce157610100808354040283529160200191610d0c565b820191906000526020600020905b815481529060010190602001808311610cef57829003601f168201915b5050935050505060405180910390a160019250505092915050565b6000610d348484846118b2565b600190509392505050565b60006020528060005260406000206000915090508054600181600116156101000203166002900480601f016020809104026020016040519081016040528092919081815260200182805460018160011615610100020316600290048015610de75780601f10610dbc57610100808354040283529160200191610de7565b820191906000526020600020905b815481529060010190602001808311610dca57829003601f168201915b505050505081565b60006001600254016002819055508360016000600254815260200190815260200160002060006101000a81548173ffffffffffffffffffffffffffffffffffffffff021916908373ffffffffffffffffffffffffffffffffffffffff160217905550816000808581526020019081526020016000209080519060200190610e77929190611afa565b508373ffffffffffffffffffffffffffffffffffffffff167f93e8ef53fa1762269961bdc02811e560fa10787f7f2f9c13f74ddad8221614d260405160405180910390a2600190509392505050565b6000806103e8905060008090505b600254811015610f56578373ffffffffffffffffffffffffffffffffffffffff166001600083815260200190815260200160002060009054906101000a900473ffffffffffffffffffffffffffffffffffffffff1673ffffffffffffffffffffffffffffffffffffffff161415610f49578091505b8080600101915050610ed4565b5080915050919050565b60016020528060005260406000206000915054906101000a900473ffffffffffffffffffffffffffffffffffffffff1681565b60046020528060005260406000206000915090508054600181600116156101000203166002900480601f01602080910402602001604051908101604052809291908181526020018280546001816001161561010002031660029004801561103b5780601f106110105761010080835404028352916020019161103b565b820191906000526020600020905b81548152906001019060200180831161101e57829003601f168201915b505050505081565b6000600254905090565b6000806110cb6110c58533604051602001808381526020018273ffffffffffffffffffffffffffffffffffffffff1673ffffffffffffffffffffffffffffffffffffffff166c010000000000000000000000000281526014019250505060405160208183030381529060405280519060200120611753565b846117ab565b90503373ffffffffffffffffffffffffffffffffffffffff168173ffffffffffffffffffffffffffffffffffffffff16141515611196576040517f08c379a00000000000000000000000000000000000000000000000000000000081526004018080602001828103825260278152602001807f556e617574686f7269736564207369676e657220686173206265656e2064656381526020017f7465637465642e0000000000000000000000000000000000000000000000000081525060400191505060405180910390fd5b826004600086815260200190815260200160002090805190602001906111bd929190611afa565b507f310ef772e7b2317ce82d34c9206cb492cd618b2672a97821735b11ac7860acc483856040518080602001838152602001828103825284818151815260200191508051906020019080838360005b8381101561122757808201518184015260208101905061120c565b50505050905090810190601f1680156112545780820380516001836020036101000a031916815260200191505b50935050505060405180910390a1600191505092915050565b6000806113966112e58686604051602001808381526020018273ffffffffffffffffffffffffffffffffffffffff1673ffffffffffffffffffffffffffffffffffffffff166c010000000000000000000000000281526014019250505060405160208183030381529060405280519060200120611753565b600460008881526020019081526020016000208054600181600116156101000203166002900480601f01602080910402602001604051908101604052809291908181526020018280546001816001161561010002031660029004801561138c5780601f106113615761010080835404028352916020019161138c565b820191906000526020600020905b81548152906001019060200180831161136f57829003601f168201915b50505050506117ab565b90508373ffffffffffffffffffffffffffffffffffffffff168173ffffffffffffffffffffffffffffffffffffffff16141515611461576040517f08c379a00000000000000000000000000000000000000000000000000000000081526004018080602001828103825260218152602001807f43617220646f6573206e6f742062656c6f6e6720746f20746865206f776e657281526020017f2e0000000000000000000000000000000000000000000000000000000000000081525060400191505060405180910390fd5b60006114de6114d88733604051602001808381526020018273ffffffffffffffffffffffffffffffffffffffff1673ffffffffffffffffffffffffffffffffffffffff166c010000000000000000000000000281526014019250505060405160208183030381529060405280519060200120611753565b856117ab565b90503373ffffffffffffffffffffffffffffffffffffffff168173ffffffffffffffffffffffffffffffffffffffff161415156115a9576040517f08c379a00000000000000000000000000000000000000000000000000000000081526004018080602001828103825260278152602001807f556e617574686f7269736564207369676e657220686173206265656e2064656381526020017f7465637465642e0000000000000000000000000000000000000000000000000081525060400191505060405180910390fd5b836003600088815260200190815260200160002090805190602001906115d0929190611afa565b507fa2d915934bacfcdfeaafa4c684d7e06435d1e2325665df7d0128d8a2978740f584876040518080602001838152602001828103825284818151815260200191508051906020019080838360005b8381101561163a57808201518184015260208101905061161f565b50505050905090810190601f1680156116675780820380516001836020036101000a031916815260200191505b50935050505060405180910390a16001925050509392505050565b60036020528060005260406000206000915090508054600181600116156101000203166002900480601f01602080910402602001604051908101604052809291908181526020018280546001816001161561010002031660029004801561172a5780601f106116ff5761010080835404028352916020019161172a565b820191906000526020600020905b81548152906001019060200180831161170d57829003601f168201915b505050505081565b60008173ffffffffffffffffffffffffffffffffffffffff16319050919050565b60008160405160200180807f19457468657265756d205369676e6564204d6573736167653a0a333200000000815250601c01828152602001915050604051602081830303815290604052805190602001209050919050565b6000604182511415156117c157600090506118ac565b60008060006020850151925060408501519150606085015160001a90507f7fffffffffffffffffffffffffffffff5d576e7357a4501ddfe92f46681b20a08260019004111561181657600093505050506118ac565b601b8160ff161415801561182e5750601c8160ff1614155b1561183f57600093505050506118ac565b60018682858560405160008152602001604052604051808581526020018460ff1660ff1681526020018381526020018281526020019450505050506020604051602081039080840390855afa15801561189c573d6000803e3d6000fd5b5050506020604051035193505050505b92915050565b600073ffffffffffffffffffffffffffffffffffffffff168373ffffffffffffffffffffffffffffffffffffffff161415151561197d576040517f08c379a00000000000000000000000000000000000000000000000000000000081526004018080602001828103825260258152602001807f42455032303a207472616e736665722066726f6d20746865207a65726f20616481526020017f647265737300000000000000000000000000000000000000000000000000000081525060400191505060405180910390fd5b600073ffffffffffffffffffffffffffffffffffffffff168273ffffffffffffffffffffffffffffffffffffffff1614151515611a48576040517f08c379a00000000000000000000000000000000000000000000000000000000081526004018080602001828103825260238152602001807f42455032303a207472616e7366657220746f20746865207a65726f206164647281526020017f657373000000000000000000000000000000000000000000000000000000000081525060400191505060405180910390fd5b8173ffffffffffffffffffffffffffffffffffffffff168373ffffffffffffffffffffffffffffffffffffffff167fddf252ad1be2c89b69c2b068fc378daa952ba7f163c4a11628f55a4df523b3ef836040518082815260200191505060405180910390a3505050565b50805460018160011615610100020316600290046000825580601f10611ad85750611af7565b601f016020900490600052602060002090810190611af69190611b7a565b5b50565b828054600181600116156101000203166002900490600052602060002090601f016020900481019282601f10611b3b57805160ff1916838001178555611b69565b82800160010185558215611b69579182015b82811115611b68578251825591602001919060010190611b4d565b5b509050611b769190611b7a565b5090565b611b9c91905b80821115611b98576000816000905550600101611b80565b5090565b9056fea165627a7a723058205da1442659bb5bad55be6f9d00debde584ac6db229e43ed77bed0e3b93aa83cd0029",
  "source": "// SPDX-License-Identifier: MIT\n// pragma solidity ^0.8.11;\npragma solidity ^0.5.0;\nimport \"./ECDSA.sol\";\n\n// smart contract to add new user, new cars and any ride on the blockchain\ncontract Peershare {\n    // state variables\n    //user registration\n    mapping(bytes32 => bytes) public userSignature;\n    mapping(uint256 => address) public activeUsers;\n    uint256 userCount = 0;\n    //car management\n    mapping(bytes32 => bytes) public borrowerSignature;\n    mapping(bytes32 => bytes) public ownerSignature;\n\n    // payment transaction\n    mapping(address => uint256) private balances;\n    event Transfer(address indexed from, address indexed to, uint256 value);\n    event AddUser(address indexed user);\n    event AddCar(bytes ownerSignature, bytes32 carHash);\n    event RentCar(bytes borrowerSignature, bytes32 carHash);\n    event ReturnCar(bytes borrowerSignature, bytes32 carHash);\n\n    function getUserCount() public view returns (uint256) {\n        return uint256(userCount);\n    }\n\n    function getUser(address ethereumAddress) public view returns (uint256) {\n        uint256 res = 1000;\n        // Verify if the user is unique in blockchain\n        for (uint256 i = 0; i < userCount; i++) {\n            if (activeUsers[i] == ethereumAddress) {\n                res = i;\n            }\n        }\n        return uint256(res);\n    }\n\n    function addUser(\n        address ethereumAddress,\n        bytes32 userHash,\n        bytes memory signature\n    ) public returns (bool) {\n        // Add user address\n        userCount = userCount + 1;\n        activeUsers[userCount] = ethereumAddress;\n\n        //storing signature\n        userSignature[userHash] = signature;\n\n        emit AddUser(ethereumAddress);\n        return true;\n    }\n\n    function addCar(bytes32 carHash, bytes memory signature)\n        public\n        returns (bool)\n    {\n        // Get signer from signature\n        address signer = ECDSA.recover(\n            ECDSA.toEthSignedMessageHash(\n                keccak256(abi.encodePacked(carHash, msg.sender))\n            ),\n            signature\n        );\n        require(\n            signer == msg.sender,\n            \"Unauthorised signer has been dectected.\"\n        );\n\n        ownerSignature[carHash] = signature;\n        emit AddCar(signature, carHash);\n        return bool(true);\n    }\n\n    function rentCar(\n        bytes32 carHash,\n        address ownerAddress,\n        bytes memory signature\n    ) public returns (bool) {\n        // Get address from owner signature\n        address _ownerAddress = ECDSA.recover(\n            ECDSA.toEthSignedMessageHash(\n                keccak256(abi.encodePacked(carHash, ownerAddress))\n            ),\n            ownerSignature[carHash]\n        );\n\n        // Verify the car belong to the right owner\n        require(\n            _ownerAddress == ownerAddress,\n            \"Car does not belong to the owner.\"\n        );\n\n        // Get signer from signature\n        address signer = ECDSA.recover(\n            ECDSA.toEthSignedMessageHash(\n                keccak256(abi.encodePacked(carHash, msg.sender))\n            ),\n            signature\n        );\n\n        // Verify the borrower address\n        require(\n            signer == msg.sender,\n            \"Unauthorised signer has been dectected.\"\n        );\n\n        // Add borrower signature\n        borrowerSignature[carHash] = signature;\n        emit RentCar(signature, carHash);\n        return true;\n    }\n\n    function returnCar(bytes32 carHash, address ownerAddress)\n        public\n        returns (bool)\n    {\n        // Get address from owner signature\n        address _ownerAddress = ECDSA.recover(\n            ECDSA.toEthSignedMessageHash(\n                keccak256(abi.encodePacked(carHash, ownerAddress))\n            ),\n            ownerSignature[carHash]\n        );\n\n        // Verify the car belong to the right owner\n        require(\n            _ownerAddress == ownerAddress,\n            \"Car does not belong to the owner.\"\n        );\n\n        // Get address from borrower signature\n        address _borrowerAddress = ECDSA.recover(\n            ECDSA.toEthSignedMessageHash(\n                keccak256(abi.encodePacked(carHash, msg.sender))\n            ),\n            borrowerSignature[carHash]\n        );\n\n        // Verify the car returning belong to the right borrower\n        require(\n            _borrowerAddress == msg.sender,\n            \"Car does not belong to the borrower.\"\n        );\n\n        // Delete the borrower signature for the car\n        delete borrowerSignature[carHash];\n        emit ReturnCar(borrowerSignature[carHash], carHash);\n        return true;\n    }\n\n    function transferFrom(\n        address payable sender,\n        address payable recipient,\n        uint256 amount\n    ) external payable returns (bool) {\n        _transfer(sender, recipient, amount);\n        //_approve(sender, _msgSender(), _allowances[sender][_msgSender()].sub(amount, \"BEP20: transfer amount exceeds allowance\"));\n        return true;\n    }\n\n    function _transfer(\n        address payable sender,\n        address payable recipient,\n        uint256 amount\n    ) internal {\n        require(sender != address(0), \"BEP20: transfer from the zero address\");\n        require(recipient != address(0), \"BEP20: transfer to the zero address\");\n        //balances[sender] = balances[sender].sub(amount, \"BEP20: transfer amount exceeds balance\");\n        //balances[sender] -=amount;\n        //balances[recipient]+=amount;\n        // balances[recipient] = balances[recipient].add(amount);\n        emit Transfer(sender, recipient, amount);\n    }\n\n    function getBalance(address sender) public view returns (uint256) {\n        return address(sender).balance;\n    }\n}\n",
  "sourcePath": "/Users/nehasihag/Downloads/peershare github/backend/blockchain/contracts/Peershare.sol",
  "compiler": {
    "name": "solc",
    "version": "0.5.0+commit.1d4f565a.Emscripten.clang"
  },
  "schemaVersion": "3.0.1",
  "updatedAt": "2022-11-23T05:50:56.979Z",
  "devdoc": {
    "methods": {}
  },
  "userdoc": {
    "methods": {}
  }
}