{
  "contractName": "Peershare",
  "abi": [
    {
      "constant": true,
      "inputs": [
        {
          "name": "",
          "type": "uint256"
        }
      ],
      "name": "ownerSignature",
      "outputs": [
        {
          "name": "",
          "type": "int256"
        }
      ],
      "payable": false,
      "stateMutability": "view",
      "type": "function",
      "signature": "0x7004bcd3"
    },
    {
      "constant": true,
      "inputs": [],
      "name": "getUsersInSystem",
      "outputs": [
        {
          "name": "",
          "type": "uint256"
        }
      ],
      "payable": false,
      "stateMutability": "view",
      "type": "function",
      "signature": "0x6e9b749d"
    },
    {
      "constant": false,
      "inputs": [
        {
          "name": "userHash",
          "type": "bytes32"
        },
        {
          "name": "signature",
          "type": "bytes"
        }
      ],
      "name": "addUser",
      "outputs": [
        {
          "name": "",
          "type": "bool"
        }
      ],
      "payable": false,
      "stateMutability": "nonpayable",
      "type": "function",
      "signature": "0x6d7b95b5"
    },
    {
      "constant": false,
      "inputs": [
        {
          "name": "user_id",
          "type": "int256"
        }
      ],
      "name": "addCar",
      "outputs": [
        {
          "name": "",
          "type": "bool"
        }
      ],
      "payable": false,
      "stateMutability": "nonpayable",
      "type": "function",
      "signature": "0x71bc3300"
    }
  ],
  "bytecode": "0x6080604052600060025534801561001557600080fd5b506103cb806100256000396000f3fe608060405260043610610062576000357c0100000000000000000000000000000000000000000000000000000000900463ffffffff1680636d7b95b5146100675780636e9b749d146101515780637004bcd31461017c57806371bc3300146101cb575b600080fd5b34801561007357600080fd5b506101376004803603604081101561008a57600080fd5b8101908080359060200190929190803590602001906401000000008111156100b157600080fd5b8201836020820111156100c357600080fd5b803590602001918460018302840111640100000000831117156100e557600080fd5b91908080601f016020809104026020016040519081016040528093929190818152602001838380828437600081840152601f19601f82011690508083019250505050505050919291929050505061021e565b604051808215151515815260200191505060405180910390f35b34801561015d57600080fd5b50610166610297565b6040518082815260200191505060405180910390f35b34801561018857600080fd5b506101b56004803603602081101561019f57600080fd5b81019080803590602001909291905050506102a1565b6040518082815260200191505060405180910390f35b3480156101d757600080fd5b50610204600480360360208110156101ee57600080fd5b81019080803590602001909291905050506102c4565b604051808215151515815260200191505060405180910390f35b6000806001600085815260200190815260200160002080546001816001161561010002031660029004905011156102585760009050610291565b8160016000858152602001908152602001600020908051906020019061027f9291906102fa565b50600160025401600281905550600190505b92915050565b6000600254905090565b6000818154811015156102b057fe5b906000526020600020016000915090505481565b60008082908060018154018082558091505090600182039060005260206000200160009091929091909150555060019050919050565b828054600181600116156101000203166002900490600052602060002090601f016020900481019282601f1061033b57805160ff1916838001178555610369565b82800160010185558215610369579182015b8281111561036857825182559160200191906001019061034d565b5b509050610376919061037a565b5090565b61039c91905b80821115610398576000816000905550600101610380565b5090565b9056fea165627a7a723058209bff335e8aaa5f7d7e7d29118b1126f3f80a9cdae662d3f8da2bc089d7bb8bf70029",
  "source": "// SPDX-License-Identifier: MIT\n// pragma solidity ^0.8.11;\npragma solidity >=0.4.22 <0.9.0;\n\n// smart contract to add new user, new cars and any ride on the blockchain\ncontract Peershare {\n    // state variables\n    int256[] public ownerSignature;\n    mapping(bytes32 => bytes) userSignature;\n    uint256 userCount = 0;\n\n    function getUsersInSystem() public view returns (uint256) {\n        return uint256(userCount);\n    }\n\n    function addUser(bytes32 userHash, bytes memory signature)\n        public\n        returns (bool)\n    {\n        // Verify if the user is unique in blockchain\n        if (bytes(userSignature[userHash]).length > 0) {\n            //console.log(userSignature[userHash]);\n            //user already exists\n            return false;\n        }\n\n        // Add user signature\n        userSignature[userHash] = signature;\n        userCount = userCount + 1;\n\n        return true;\n    }\n\n    function addCar(int256 user_id) public returns (bool) {\n        ownerSignature.push(user_id);\n        return true;\n    }\n}\n",
  "sourcePath": "/Users/nehasihag/Downloads/peershare-main 2/backend/blockchain/contracts/Peershare.sol",
  "compiler": {
    "name": "solc",
    "version": "0.5.0+commit.1d4f565a.Emscripten.clang"
  },
  "schemaVersion": "3.0.1",
  "updatedAt": "2022-10-19T19:19:13.785Z",
  "devdoc": {
    "methods": {}
  },
  "userdoc": {
    "methods": {}
  }
}