{
  "contractName": "Peershare",
  "abi": [
    {
      "inputs": [],
      "stateMutability": "nonpayable",
      "type": "constructor"
    },
    {
      "inputs": [
        {
          "internalType": "uint256",
          "name": "",
          "type": "uint256"
        }
      ],
      "name": "userData",
      "outputs": [
        {
          "internalType": "address",
          "name": "ethAcc",
          "type": "address"
        },
        {
          "internalType": "bytes",
          "name": "signature",
          "type": "bytes"
        },
        {
          "internalType": "bool",
          "name": "isValue",
          "type": "bool"
        }
      ],
      "stateMutability": "view",
      "type": "function",
      "constant": true
    },
    {
      "inputs": [],
      "name": "getUsersInSystem",
      "outputs": [
        {
          "internalType": "int256",
          "name": "",
          "type": "int256"
        }
      ],
      "stateMutability": "view",
      "type": "function",
      "constant": true
    },
    {
      "inputs": [],
      "name": "getAllUsers",
      "outputs": [
        {
          "internalType": "address[]",
          "name": "",
          "type": "address[]"
        }
      ],
      "stateMutability": "view",
      "type": "function",
      "constant": true
    },
    {
      "inputs": [
        {
          "internalType": "address",
          "name": "ethereumAddress",
          "type": "address"
        }
      ],
      "name": "getUser",
      "outputs": [
        {
          "internalType": "address",
          "name": "",
          "type": "address"
        }
      ],
      "stateMutability": "view",
      "type": "function",
      "constant": true
    },
    {
      "inputs": [
        {
          "internalType": "address",
          "name": "ethereumAddress",
          "type": "address"
        }
      ],
      "name": "addUser",
      "outputs": [
        {
          "internalType": "bool",
          "name": "",
          "type": "bool"
        }
      ],
      "stateMutability": "nonpayable",
      "type": "function"
    }
  ],
  "bytecode": "0x6080604052600060025534801561001557600080fd5b50610965806100256000396000f3fe608060405234801561001057600080fd5b50600436106100575760003560e01c806330d535dc1461005c578063421b2d8b1461008e5780636e9b749d146100be5780636f77926b146100dc578063e2842d791461010c575b600080fd5b6100766004803603810190610071919061049f565b61012a565b604051610085939291906105c1565b60405180910390f35b6100a860048036038101906100a3919061062b565b610219565b6040516100b59190610658565b60405180910390f35b6100c661028d565b6040516100d3919061068c565b60405180910390f35b6100f660048036038101906100f1919061062b565b610297565b60405161010391906106a7565b60405180910390f35b61011461036a565b6040516101219190610780565b60405180910390f35b6000818154811061013a57600080fd5b90600052602060002090600302016000915090508060000160009054906101000a900473ffffffffffffffffffffffffffffffffffffffff1690806001018054610183906107d1565b80601f01602080910402602001604051908101604052809291908181526020018280546101af906107d1565b80156101fc5780601f106101d1576101008083540402835291602001916101fc565b820191906000526020600020905b8154815290600101906020018083116101df57829003601f168201915b5050505050908060020160009054906101000a900460ff16905083565b6000600160025461022a9190610832565b6002819055508160016000600254815260200190815260200160002060006101000a81548173ffffffffffffffffffffffffffffffffffffffff021916908373ffffffffffffffffffffffffffffffffffffffff16021790555060019050919050565b6000600254905090565b600080600090505b60025481101561035f578273ffffffffffffffffffffffffffffffffffffffff166001600083815260200190815260200160002060009054906101000a900473ffffffffffffffffffffffffffffffffffffffff1673ffffffffffffffffffffffffffffffffffffffff16141561034c576001600082815260200190815260200160002060009054906101000a900473ffffffffffffffffffffffffffffffffffffffff16915050610365565b808061035790610888565b91505061029f565b50600090505b919050565b6060600060025467ffffffffffffffff81111561038a576103896108d1565b5b6040519080825280602002602001820160405280156103b85781602001602082028036833780820191505090505b50905060005b60025481101561045c576001600082815260200190815260200160002060009054906101000a900473ffffffffffffffffffffffffffffffffffffffff1682828151811061040f5761040e610900565b5b602002602001019073ffffffffffffffffffffffffffffffffffffffff16908173ffffffffffffffffffffffffffffffffffffffff1681525050808061045490610888565b9150506103be565b508091505090565b600080fd5b6000819050919050565b61047c81610469565b811461048757600080fd5b50565b60008135905061049981610473565b92915050565b6000602082840312156104b5576104b4610464565b5b60006104c38482850161048a565b91505092915050565b600073ffffffffffffffffffffffffffffffffffffffff82169050919050565b60006104f7826104cc565b9050919050565b610507816104ec565b82525050565b600081519050919050565b600082825260208201905092915050565b60005b8381101561054757808201518184015260208101905061052c565b83811115610556576000848401525b50505050565b6000601f19601f8301169050919050565b60006105788261050d565b6105828185610518565b9350610592818560208601610529565b61059b8161055c565b840191505092915050565b60008115159050919050565b6105bb816105a6565b82525050565b60006060820190506105d660008301866104fe565b81810360208301526105e8818561056d565b90506105f760408301846105b2565b949350505050565b610608816104ec565b811461061357600080fd5b50565b600081359050610625816105ff565b92915050565b60006020828403121561064157610640610464565b5b600061064f84828501610616565b91505092915050565b600060208201905061066d60008301846105b2565b92915050565b6000819050919050565b61068681610673565b82525050565b60006020820190506106a1600083018461067d565b92915050565b60006020820190506106bc60008301846104fe565b92915050565b600081519050919050565b600082825260208201905092915050565b6000819050602082019050919050565b6106f7816104ec565b82525050565b600061070983836106ee565b60208301905092915050565b6000602082019050919050565b600061072d826106c2565b61073781856106cd565b9350610742836106de565b8060005b8381101561077357815161075a88826106fd565b975061076583610715565b925050600181019050610746565b5085935050505092915050565b6000602082019050818103600083015261079a8184610722565b905092915050565b7f4e487b7100000000000000000000000000000000000000000000000000000000600052602260045260246000fd5b600060028204905060018216806107e957607f821691505b602082108114156107fd576107fc6107a2565b5b50919050565b7f4e487b7100000000000000000000000000000000000000000000000000000000600052601160045260246000fd5b600061083d82610469565b915061084883610469565b9250827fffffffffffffffffffffffffffffffffffffffffffffffffffffffffffffffff0382111561087d5761087c610803565b5b828201905092915050565b600061089382610469565b91507fffffffffffffffffffffffffffffffffffffffffffffffffffffffffffffffff8214156108c6576108c5610803565b5b600182019050919050565b7f4e487b7100000000000000000000000000000000000000000000000000000000600052604160045260246000fd5b7f4e487b7100000000000000000000000000000000000000000000000000000000600052603260045260246000fdfea26469706673582212209e20078b850ef0023a63960496b7dee6315f48f4dc11773cd59979e14e59fabb64736f6c634300080b0033",
  "immutableReferences": {},
  "source": "// SPDX-License-Identifier: MIT\r\npragma solidity ^0.8.11;\r\n\r\n// smart contract to add new user, new cars and any ride on the blockchain\r\ncontract Peershare {\r\n    struct UserData {\r\n        address ethAcc;\r\n        bytes signature;\r\n        bool isValue;\r\n    }\r\n    // state variables\r\n    UserData[] public userData;\r\n    mapping(uint256 => address) activeUsers;\r\n    uint256 userCount = 0;\r\n\r\n    constructor() {\r\n        //if we need any state variables to be initialized\r\n    }\r\n\r\n    function getUsersInSystem() public view returns (int256) {\r\n        return int256(userCount);\r\n    }\r\n\r\n    function getAllUsers() public view returns (address[] memory) {\r\n        address[] memory ret = new address[](userCount);\r\n        for (uint256 i = 0; i < userCount; i++) {\r\n            ret[i] = activeUsers[i];\r\n        }\r\n        return ret;\r\n    }\r\n\r\n    function getUser(address ethereumAddress) public view returns (address) {\r\n        // Verify if the user is unique in blockchain\r\n        for (uint256 i = 0; i < userCount; i++) {\r\n            if (activeUsers[i] == ethereumAddress) {\r\n                return activeUsers[i];\r\n            }\r\n        }\r\n        // if (activeUsers[ethereumAddress]) {\r\n        //     //console.log(userSignature[userHash]);\r\n        //     //user already exists\r\n        //     return true;\r\n        // }\r\n        return address(0x0);\r\n    }\r\n\r\n    function addUser(address ethereumAddress) public returns (bool) {\r\n        // Add user signature\r\n        // activeUsers[ethereumAddress] = true;\r\n        // userCount = userCount + 1;\r\n        userCount = userCount + 1;\r\n        activeUsers[userCount] = ethereumAddress;\r\n        return true;\r\n    }\r\n\r\n    // TODO: add new car to blockchain\r\n}\r\n",
  "sourcePath": "C:\\Esha\\SchoolWork\\master-project\\final-project\\peershare\\backend\\blockchain\\contracts\\Peershare.sol",
  "compiler": {
    "name": "solc",
    "version": "0.8.11+commit.d7f03943.Emscripten.clang"
  },
  "schemaVersion": "3.4.10",
  "updatedAt": "2022-10-23T06:20:54.442Z",
  "networkType": "ethereum",
  "devdoc": {
    "kind": "dev",
    "methods": {},
    "version": 1
  },
  "userdoc": {
    "kind": "user",
    "methods": {},
    "version": 1
  }
}