{
  "contractName": "Peershare",
  "abi": [
    {
      "constant": true,
      "inputs": [
        {
          "name": "",
          "type": "bytes32"
        }
      ],
      "name": "userSignature",
      "outputs": [
        {
          "name": "",
          "type": "bytes"
        }
      ],
      "payable": false,
      "stateMutability": "view",
      "type": "function",
      "signature": "0x431d23ae"
    },
    {
      "constant": true,
      "inputs": [
        {
          "name": "",
          "type": "uint256"
        }
      ],
      "name": "activeUsers",
      "outputs": [
        {
          "name": "",
          "type": "address"
        }
      ],
      "payable": false,
      "stateMutability": "view",
      "type": "function",
      "signature": "0x803ae518"
    },
    {
      "constant": true,
      "inputs": [
        {
          "name": "",
          "type": "bytes32"
        }
      ],
      "name": "ownerSignature",
      "outputs": [
        {
          "name": "",
          "type": "bytes"
        }
      ],
      "payable": false,
      "stateMutability": "view",
      "type": "function",
      "signature": "0xb458262c"
    },
    {
      "constant": true,
      "inputs": [
        {
          "name": "",
          "type": "bytes32"
        }
      ],
      "name": "borrowerSignature",
      "outputs": [
        {
          "name": "",
          "type": "bytes"
        }
      ],
      "payable": false,
      "stateMutability": "view",
      "type": "function",
      "signature": "0xe00f3eba"
    },
    {
      "anonymous": false,
      "inputs": [
        {
          "indexed": true,
          "name": "from",
          "type": "address"
        },
        {
          "indexed": true,
          "name": "to",
          "type": "address"
        },
        {
          "indexed": false,
          "name": "value",
          "type": "uint256"
        }
      ],
      "name": "Transfer",
      "type": "event",
      "signature": "0xddf252ad1be2c89b69c2b068fc378daa952ba7f163c4a11628f55a4df523b3ef"
    },
    {
      "constant": true,
      "inputs": [
        {
          "name": "ethereumAddress",
          "type": "address"
        }
      ],
      "name": "getUser",
      "outputs": [
        {
          "name": "",
          "type": "address"
        }
      ],
      "payable": false,
      "stateMutability": "view",
      "type": "function",
      "signature": "0x6f77926b"
    },
    {
      "constant": false,
      "inputs": [
        {
          "name": "ethereumAddress",
          "type": "address"
        },
        {
          "name": "userHash",
          "type": "bytes32"
        },
        {
          "name": "signature",
          "type": "bytes"
        }
      ],
      "name": "addUser",
      "outputs": [
        {
          "name": "",
          "type": "bool"
        }
      ],
      "payable": false,
      "stateMutability": "nonpayable",
      "type": "function",
      "signature": "0x5d1dcf11"
    },
    {
      "constant": false,
      "inputs": [
        {
          "name": "carHash",
          "type": "bytes32"
        },
        {
          "name": "signature",
          "type": "bytes"
        }
      ],
      "name": "addCar",
      "outputs": [
        {
          "name": "",
          "type": "bool"
        }
      ],
      "payable": false,
      "stateMutability": "nonpayable",
      "type": "function",
      "signature": "0xbbeae388"
    },
    {
      "constant": false,
      "inputs": [
        {
          "name": "carHash",
          "type": "bytes32"
        },
        {
          "name": "ownerAddress",
          "type": "address"
        },
        {
          "name": "signature",
          "type": "bytes"
        }
      ],
      "name": "rentCar",
      "outputs": [
        {
          "name": "",
          "type": "bool"
        }
      ],
      "payable": false,
      "stateMutability": "nonpayable",
      "type": "function",
      "signature": "0xd2d7f7ba"
    },
    {
      "constant": false,
      "inputs": [
        {
          "name": "carHash",
          "type": "bytes32"
        },
        {
          "name": "ownerAddress",
          "type": "address"
        }
      ],
      "name": "returnCar",
      "outputs": [
        {
          "name": "",
          "type": "bool"
        }
      ],
      "payable": false,
      "stateMutability": "nonpayable",
      "type": "function",
      "signature": "0x11d08980"
    }
  ],
  "bytecode": "0x6080604052600060025534801561001557600080fd5b50611651806100256000396000f3fe608060405260043610610099576000357c0100000000000000000000000000000000000000000000000000000000900463ffffffff16806311d089801461009e578063431d23ae146101115780635d1dcf11146101c55780636f77926b146102cf578063803ae51814610360578063b458262c146103db578063bbeae3881461048f578063d2d7f7ba14610579578063e00f3eba14610683575b600080fd5b3480156100aa57600080fd5b506100f7600480360360408110156100c157600080fd5b8101908080359060200190929190803573ffffffffffffffffffffffffffffffffffffffff169060200190929190505050610737565b604051808215151515815260200191505060405180910390f35b34801561011d57600080fd5b5061014a6004803603602081101561013457600080fd5b8101908080359060200190929190505050610b49565b6040518080602001828103825283818151815260200191508051906020019080838360005b8381101561018a57808201518184015260208101905061016f565b50505050905090810190601f1680156101b75780820380516001836020036101000a031916815260200191505b509250505060405180910390f35b3480156101d157600080fd5b506102b5600480360360608110156101e857600080fd5b81019080803573ffffffffffffffffffffffffffffffffffffffff169060200190929190803590602001909291908035906020019064010000000081111561022f57600080fd5b82018360208201111561024157600080fd5b8035906020019184600183028401116401000000008311171561026357600080fd5b91908080601f016020809104026020016040519081016040528093929190818152602001838380828437600081840152601f19601f820116905080830192505050505050509192919290505050610bf9565b604051808215151515815260200191505060405180910390f35b3480156102db57600080fd5b5061031e600480360360208110156102f257600080fd5b81019080803573ffffffffffffffffffffffffffffffffffffffff169060200190929190505050610c8d565b604051808273ffffffffffffffffffffffffffffffffffffffff1673ffffffffffffffffffffffffffffffffffffffff16815260200191505060405180910390f35b34801561036c57600080fd5b506103996004803603602081101561038357600080fd5b8101908080359060200190929190505050610d59565b604051808273ffffffffffffffffffffffffffffffffffffffff1673ffffffffffffffffffffffffffffffffffffffff16815260200191505060405180910390f35b3480156103e757600080fd5b50610414600480360360208110156103fe57600080fd5b8101908080359060200190929190505050610d8c565b6040518080602001828103825283818151815260200191508051906020019080838360005b83811015610454578082015181840152602081019050610439565b50505050905090810190601f1680156104815780820380516001836020036101000a031916815260200191505b509250505060405180910390f35b34801561049b57600080fd5b5061055f600480360360408110156104b257600080fd5b8101908080359060200190929190803590602001906401000000008111156104d957600080fd5b8201836020820111156104eb57600080fd5b8035906020019184600183028401116401000000008311171561050d57600080fd5b91908080601f016020809104026020016040519081016040528093929190818152602001838380828437600081840152601f19601f820116905080830192505050505050509192919290505050610e3c565b604051808215151515815260200191505060405180910390f35b34801561058557600080fd5b506106696004803603606081101561059c57600080fd5b8101908080359060200190929190803573ffffffffffffffffffffffffffffffffffffffff169060200190929190803590602001906401000000008111156105e357600080fd5b8201836020820111156105f557600080fd5b8035906020019184600183028401116401000000008311171561061757600080fd5b91908080601f016020809104026020016040519081016040528093929190818152602001838380828437600081840152601f19601f820116905080830192505050505050509192919290505050610fb8565b604051808215151515815260200191505060405180910390f35b34801561068f57600080fd5b506106bc600480360360208110156106a657600080fd5b8101908080359060200190929190505050611329565b6040518080602001828103825283818151815260200191508051906020019080838360005b838110156106fc5780820151818401526020810190506106e1565b50505050905090810190601f1680156107295780820380516001836020036101000a031916815260200191505b509250505060405180910390f35b6000806108606107af8585604051602001808381526020018273ffffffffffffffffffffffffffffffffffffffff1673ffffffffffffffffffffffffffffffffffffffff166c0100000000000000000000000002815260140192505050604051602081830303815290604052805190602001206113d9565b600460008781526020019081526020016000208054600181600116156101000203166002900480601f0160208091040260200160405190810160405280929190818152602001828054600181600116156101000203166002900480156108565780601f1061082b57610100808354040283529160200191610856565b820191906000526020600020905b81548152906001019060200180831161083957829003601f168201915b5050505050611431565b90508273ffffffffffffffffffffffffffffffffffffffff168173ffffffffffffffffffffffffffffffffffffffff1614151561092b576040517f08c379a00000000000000000000000000000000000000000000000000000000081526004018080602001828103825260218152602001807f43617220646f6573206e6f742062656c6f6e6720746f20746865206f776e657281526020017f2e0000000000000000000000000000000000000000000000000000000000000081525060400191505060405180910390fd5b6000610a536109a28633604051602001808381526020018273ffffffffffffffffffffffffffffffffffffffff1673ffffffffffffffffffffffffffffffffffffffff166c0100000000000000000000000002815260140192505050604051602081830303815290604052805190602001206113d9565b600360008881526020019081526020016000208054600181600116156101000203166002900480601f016020809104026020016040519081016040528092919081815260200182805460018160011615610100020316600290048015610a495780601f10610a1e57610100808354040283529160200191610a49565b820191906000526020600020905b815481529060010190602001808311610a2c57829003601f168201915b5050505050611431565b90503373ffffffffffffffffffffffffffffffffffffffff168173ffffffffffffffffffffffffffffffffffffffff16141515610b1e576040517f08c379a00000000000000000000000000000000000000000000000000000000081526004018080602001828103825260248152602001807f43617220646f6573206e6f742062656c6f6e6720746f2074686520626f72726f81526020017f7765722e0000000000000000000000000000000000000000000000000000000081525060400191505060405180910390fd5b600360008681526020019081526020016000206000610b3d9190611538565b60019250505092915050565b60006020528060005260406000206000915090508054600181600116156101000203166002900480601f016020809104026020016040519081016040528092919081815260200182805460018160011615610100020316600290048015610bf15780601f10610bc657610100808354040283529160200191610bf1565b820191906000526020600020905b815481529060010190602001808311610bd457829003601f168201915b505050505081565b60006001600254016002819055508360016000600254815260200190815260200160002060006101000a81548173ffffffffffffffffffffffffffffffffffffffff021916908373ffffffffffffffffffffffffffffffffffffffff160217905550816000808581526020019081526020016000209080519060200190610c81929190611580565b50600190509392505050565b6000806000905060008090505b600254811015610d4f578373ffffffffffffffffffffffffffffffffffffffff166001600083815260200190815260200160002060009054906101000a900473ffffffffffffffffffffffffffffffffffffffff1673ffffffffffffffffffffffffffffffffffffffff161415610d42576001600082815260200190815260200160002060009054906101000a900473ffffffffffffffffffffffffffffffffffffffff1691505b8080600101915050610c9a565b5080915050919050565b60016020528060005260406000206000915054906101000a900473ffffffffffffffffffffffffffffffffffffffff1681565b60046020528060005260406000206000915090508054600181600116156101000203166002900480601f016020809104026020016040519081016040528092919081815260200182805460018160011615610100020316600290048015610e345780601f10610e0957610100808354040283529160200191610e34565b820191906000526020600020905b815481529060010190602001808311610e1757829003601f168201915b505050505081565b600080610eba610eb48533604051602001808381526020018273ffffffffffffffffffffffffffffffffffffffff1673ffffffffffffffffffffffffffffffffffffffff166c0100000000000000000000000002815260140192505050604051602081830303815290604052805190602001206113d9565b84611431565b90503373ffffffffffffffffffffffffffffffffffffffff168173ffffffffffffffffffffffffffffffffffffffff16141515610f85576040517f08c379a00000000000000000000000000000000000000000000000000000000081526004018080602001828103825260278152602001807f556e617574686f7269736564207369676e657220686173206265656e2064656381526020017f7465637465642e0000000000000000000000000000000000000000000000000081525060400191505060405180910390fd5b82600460008681526020019081526020016000209080519060200190610fac929190611580565b50600191505092915050565b6000806110e16110308686604051602001808381526020018273ffffffffffffffffffffffffffffffffffffffff1673ffffffffffffffffffffffffffffffffffffffff166c0100000000000000000000000002815260140192505050604051602081830303815290604052805190602001206113d9565b600460008881526020019081526020016000208054600181600116156101000203166002900480601f0160208091040260200160405190810160405280929190818152602001828054600181600116156101000203166002900480156110d75780601f106110ac576101008083540402835291602001916110d7565b820191906000526020600020905b8154815290600101906020018083116110ba57829003601f168201915b5050505050611431565b90508373ffffffffffffffffffffffffffffffffffffffff168173ffffffffffffffffffffffffffffffffffffffff161415156111ac576040517f08c379a00000000000000000000000000000000000000000000000000000000081526004018080602001828103825260218152602001807f43617220646f6573206e6f742062656c6f6e6720746f20746865206f776e657281526020017f2e0000000000000000000000000000000000000000000000000000000000000081525060400191505060405180910390fd5b60006112296112238733604051602001808381526020018273ffffffffffffffffffffffffffffffffffffffff1673ffffffffffffffffffffffffffffffffffffffff166c0100000000000000000000000002815260140192505050604051602081830303815290604052805190602001206113d9565b85611431565b90503373ffffffffffffffffffffffffffffffffffffffff168173ffffffffffffffffffffffffffffffffffffffff161415156112f4576040517f08c379a00000000000000000000000000000000000000000000000000000000081526004018080602001828103825260278152602001807f556e617574686f7269736564207369676e657220686173206265656e2064656381526020017f7465637465642e0000000000000000000000000000000000000000000000000081525060400191505060405180910390fd5b8360036000888152602001908152602001600020908051906020019061131b929190611580565b506001925050509392505050565b60036020528060005260406000206000915090508054600181600116156101000203166002900480601f0160208091040260200160405190810160405280929190818152602001828054600181600116156101000203166002900480156113d15780601f106113a6576101008083540402835291602001916113d1565b820191906000526020600020905b8154815290600101906020018083116113b457829003601f168201915b505050505081565b60008160405160200180807f19457468657265756d205369676e6564204d6573736167653a0a333200000000815250601c01828152602001915050604051602081830303815290604052805190602001209050919050565b6000604182511415156114475760009050611532565b60008060006020850151925060408501519150606085015160001a90507f7fffffffffffffffffffffffffffffff5d576e7357a4501ddfe92f46681b20a08260019004111561149c5760009350505050611532565b601b8160ff16141580156114b45750601c8160ff1614155b156114c55760009350505050611532565b60018682858560405160008152602001604052604051808581526020018460ff1660ff1681526020018381526020018281526020019450505050506020604051602081039080840390855afa158015611522573d6000803e3d6000fd5b5050506020604051035193505050505b92915050565b50805460018160011615610100020316600290046000825580601f1061155e575061157d565b601f01602090049060005260206000209081019061157c9190611600565b5b50565b828054600181600116156101000203166002900490600052602060002090601f016020900481019282601f106115c157805160ff19168380011785556115ef565b828001600101855582156115ef579182015b828111156115ee5782518255916020019190600101906115d3565b5b5090506115fc9190611600565b5090565b61162291905b8082111561161e576000816000905550600101611606565b5090565b9056fea165627a7a7230582076ecefed5ed0f90cfee9c5278ecb421e16d3b5f46121dab495f2d6ba6c5220ab0029",
  "source": "// SPDX-License-Identifier: MIT\n// pragma solidity ^0.8.11;\npragma solidity >=0.4.22 <0.9.0;\nimport \"./ECDSA.sol\";\n\n// smart contract to add new user, new cars and any ride on the blockchain\ncontract Peershare {\n    // state variables\n    //user registration\n    mapping(bytes32 => bytes) public userSignature;\n    mapping(uint256 => address) public activeUsers;\n    uint256 userCount = 0;\n    //car management\n    mapping(bytes32 => bytes) public borrowerSignature;\n    mapping(bytes32 => bytes) public ownerSignature;\n\n    // payment transaction\n    mapping(address => uint256) private balances;\n    event Transfer(address indexed from, address indexed to, uint256 value);\n\n    function getUser(address ethereumAddress) public view returns (address) {\n        address res = address(0x0);\n        // Verify if the user is unique in blockchain\n        for (uint256 i = 0; i < userCount; i++) {\n            if (activeUsers[i] == ethereumAddress) {\n                res = activeUsers[i];\n            }\n        }\n        return res;\n    }\n\n    function addUser(\n        address ethereumAddress,\n        bytes32 userHash,\n        bytes memory signature\n    ) public returns (bool) {\n        // Add user address\n        userCount = userCount + 1;\n        activeUsers[userCount] = ethereumAddress;\n\n        //storing signature\n        userSignature[userHash] = signature;\n        return true;\n    }\n\n    function addCar(bytes32 carHash, bytes memory signature)\n        public\n        returns (bool)\n    {\n        // Get signer from signature\n        address signer = ECDSA.recover(\n            ECDSA.toEthSignedMessageHash(\n                keccak256(abi.encodePacked(carHash, msg.sender))\n            ),\n            signature\n        );\n        require(\n            signer == msg.sender,\n            \"Unauthorised signer has been dectected.\"\n        );\n\n        ownerSignature[carHash] = signature;\n        return true;\n    }\n\n    function rentCar(\n        bytes32 carHash,\n        address ownerAddress,\n        bytes memory signature\n    ) public returns (bool) {\n        // Get address from owner signature\n        address _ownerAddress = ECDSA.recover(\n            ECDSA.toEthSignedMessageHash(\n                keccak256(abi.encodePacked(carHash, ownerAddress))\n            ),\n            ownerSignature[carHash]\n        );\n\n        // Verify the car belong to the right owner\n        require(\n            _ownerAddress == ownerAddress,\n            \"Car does not belong to the owner.\"\n        );\n\n        // Get signer from signature\n        address signer = ECDSA.recover(\n            ECDSA.toEthSignedMessageHash(\n                keccak256(abi.encodePacked(carHash, msg.sender))\n            ),\n            signature\n        );\n\n        // Verify the borrower address\n        require(\n            signer == msg.sender,\n            \"Unauthorised signer has been dectected.\"\n        );\n\n        // Add borrower signature\n        borrowerSignature[carHash] = signature;\n\n        return true;\n    }\n\n    function returnCar(bytes32 carHash, address ownerAddress)\n        public\n        returns (bool)\n    {\n        // Get address from owner signature\n        address _ownerAddress = ECDSA.recover(\n            ECDSA.toEthSignedMessageHash(\n                keccak256(abi.encodePacked(carHash, ownerAddress))\n            ),\n            ownerSignature[carHash]\n        );\n\n        // Verify the car belong to the right owner\n        require(\n            _ownerAddress == ownerAddress,\n            \"Car does not belong to the owner.\"\n        );\n\n        // Get address from borrower signature\n        address _borrowerAddress = ECDSA.recover(\n            ECDSA.toEthSignedMessageHash(\n                keccak256(abi.encodePacked(carHash, msg.sender))\n            ),\n            borrowerSignature[carHash]\n        );\n\n        // Verify the car returning belong to the right borrower\n        require(\n            _borrowerAddress == msg.sender,\n            \"Car does not belong to the borrower.\"\n        );\n\n        // Delete the borrower signature for the car\n        delete borrowerSignature[carHash];\n\n        return true;\n    }\n\n    // function transferFrom(\n    //     address payable sender,\n    //     address payable recipient,\n    //     uint256 amount\n    // ) external payable returns (bool) {\n    //     _transfer(sender, recipient, amount);\n    //     //_approve(sender, _msgSender(), _allowances[sender][_msgSender()].sub(amount, \"BEP20: transfer amount exceeds allowance\"));\n    //     return true;\n    // }\n\n    // function _transfer(\n    //     address payable sender,\n    //     address payable recipient,\n    //     uint256 amount\n    // ) internal {\n    //     require(sender != address(0), \"BEP20: transfer from the zero address\");\n    //     require(recipient != address(0), \"BEP20: transfer to the zero address\");\n    //     //balances[sender] = balances[sender].sub(amount, \"BEP20: transfer amount exceeds balance\");\n    //     //balances[sender] -=amount;\n    //     //balances[recipient]+=amount;\n    //     // balances[recipient] = balances[recipient].add(amount);\n    //     emit Transfer(sender, recipient, amount);\n    // }\n\n    // function getBalance(address sender) public view returns (uint256) {\n    //     return address(sender).balance;\n    // }\n\n    // function sendViaCall(address payable _to) public payable {\n    //     // Call returns a boolean value indicating success or failure.\n    //     // This is the current recommended method to use.\n    //     (bool sent, bytes memory data) = _to.call{value: msg.value}(\"\");\n    //     require(sent, \"Failed to send Ether\");\n    // }\n\n    // function transferToOwner() external {\n    //     require(\n    //         msg.sender == 0x3c0D14AAdc11C4F5af19e628bB0B9216248efB1E,\n    //         \"caller is not owner\"\n    //     );\n    //     payable(msg.sender).transfer(1000000);\n    // }\n}\n",
  "sourcePath": "/Users/nehasihag/Downloads/peershare github/backend/blockchain/contracts/Peershare.sol",
  "compiler": {
    "name": "solc",
    "version": "0.5.0+commit.1d4f565a.Emscripten.clang"
  },
  "schemaVersion": "3.0.1",
  "updatedAt": "2022-11-20T17:43:57.002Z",
  "devdoc": {
    "methods": {}
  },
  "userdoc": {
    "methods": {}
  }
}