{
  "contractName": "Peershare",
  "abi": [
    {
      "constant": true,
      "inputs": [
        {
          "name": "",
          "type": "int256"
        }
      ],
      "name": "borrowerSignature",
      "outputs": [
        {
          "name": "",
          "type": "int256"
        }
      ],
      "payable": false,
      "stateMutability": "view",
      "type": "function",
      "signature": "0x0bf89d4d"
    },
    {
      "constant": true,
      "inputs": [
        {
          "name": "",
          "type": "uint256"
        }
      ],
      "name": "ownerSignature",
      "outputs": [
        {
          "name": "",
          "type": "int256"
        }
      ],
      "payable": false,
      "stateMutability": "view",
      "type": "function",
      "signature": "0x7004bcd3"
    },
    {
      "constant": true,
      "inputs": [
        {
          "name": "ethereumAddress",
          "type": "address"
        }
      ],
      "name": "getUser",
      "outputs": [
        {
          "name": "",
          "type": "address"
        }
      ],
      "payable": false,
      "stateMutability": "view",
      "type": "function",
      "signature": "0x6f77926b"
    },
    {
      "constant": false,
      "inputs": [
        {
          "name": "ethereumAddress",
          "type": "address"
        }
      ],
      "name": "addUser",
      "outputs": [
        {
          "name": "",
          "type": "bool"
        }
      ],
      "payable": false,
      "stateMutability": "nonpayable",
      "type": "function",
      "signature": "0x421b2d8b"
    },
    {
      "constant": false,
      "inputs": [
        {
          "name": "user_id",
          "type": "int256"
        }
      ],
      "name": "addCar",
      "outputs": [
        {
          "name": "",
          "type": "bool"
        }
      ],
      "payable": false,
      "stateMutability": "nonpayable",
      "type": "function",
      "signature": "0x71bc3300"
    },
    {
      "constant": false,
      "inputs": [
        {
          "name": "user_id",
          "type": "int256"
        },
        {
          "name": "car_id",
          "type": "int256"
        }
      ],
      "name": "rentCar",
      "outputs": [
        {
          "name": "",
          "type": "bool"
        }
      ],
      "payable": false,
      "stateMutability": "nonpayable",
      "type": "function",
      "signature": "0x9cb4ec4f"
    }
  ],
  "bytecode": "0x6080604052600060045534801561001557600080fd5b506104be806100256000396000f3fe608060405260043610610078576000357c0100000000000000000000000000000000000000000000000000000000900463ffffffff1680630bf89d4d1461007d578063421b2d8b146100cc5780636f77926b146101355780637004bcd3146101c657806371bc3300146102155780639cb4ec4f14610268575b600080fd5b34801561008957600080fd5b506100b6600480360360208110156100a057600080fd5b81019080803590602001909291905050506102c5565b6040518082815260200191505060405180910390f35b3480156100d857600080fd5b5061011b600480360360208110156100ef57600080fd5b81019080803573ffffffffffffffffffffffffffffffffffffffff1690602001909291905050506102dd565b604051808215151515815260200191505060405180910390f35b34801561014157600080fd5b506101846004803603602081101561015857600080fd5b81019080803573ffffffffffffffffffffffffffffffffffffffff169060200190929190505050610348565b604051808273ffffffffffffffffffffffffffffffffffffffff1673ffffffffffffffffffffffffffffffffffffffff16815260200191505060405180910390f35b3480156101d257600080fd5b506101ff600480360360208110156101e957600080fd5b8101908080359060200190929190505050610415565b6040518082815260200191505060405180910390f35b34801561022157600080fd5b5061024e6004803603602081101561023857600080fd5b8101908080359060200190929190505050610438565b604051808215151515815260200191505060405180910390f35b34801561027457600080fd5b506102ab6004803603604081101561028b57600080fd5b81019080803590602001909291908035906020019092919050505061046e565b604051808215151515815260200191505060405180910390f35b60016020528060005260406000206000915090505481565b60006001600454016004819055508160036000600454815260200190815260200160002060006101000a81548173ffffffffffffffffffffffffffffffffffffffff021916908373ffffffffffffffffffffffffffffffffffffffff16021790555060019050919050565b600080600090505b60045481101561040a578273ffffffffffffffffffffffffffffffffffffffff166003600083815260200190815260200160002060009054906101000a900473ffffffffffffffffffffffffffffffffffffffff1673ffffffffffffffffffffffffffffffffffffffff1614156103fd576003600082815260200190815260200160002060009054906101000a900473ffffffffffffffffffffffffffffffffffffffff16915050610410565b8080600101915050610350565b50600090505b919050565b60008181548110151561042457fe5b906000526020600020016000915090505481565b60008082908060018154018082558091505090600182039060005260206000200160009091929091909150555060019050919050565b6000816001600085815260200190815260200160002081905550600190509291505056fea165627a7a723058207cb4bf2ba4ff1e462fee4ad01a7b0d3db80ee96d4f99237c84695c738cbe54c20029",
  "source": "// SPDX-License-Identifier: MIT\n// pragma solidity ^0.8.11;\npragma solidity >=0.4.22 <0.9.0;\n\n// smart contract to add new user, new cars and any ride on the blockchain\ncontract Peershare {\n    // state variables\n    int256[] public ownerSignature;\n    mapping(int256 => int256) public borrowerSignature;\n    mapping(bytes32 => bytes) userSignature;\n    mapping(uint256 => address) activeUsers;\n    uint256 userCount = 0;\n\n    function getUser(address ethereumAddress) public view returns (address) {\n        // Verify if the user is unique in blockchain\n        for (uint256 i = 0; i < userCount; i++) {\n            if (activeUsers[i] == ethereumAddress) {\n                return activeUsers[i];\n            }\n        }\n        return address(0x0);\n    }\n\n    function addUser(address ethereumAddress) public returns (bool) {\n        // Add user address\n        userCount = userCount + 1;\n        activeUsers[userCount] = ethereumAddress;\n        return true;\n    }\n\n    function addCar(int256 user_id) public returns (bool) {\n        ownerSignature.push(user_id);\n        return true;\n    }\n\n    function rentCar(int256 user_id, int256 car_id) public returns (bool) {\n        borrowerSignature[user_id] = car_id;\n        return true;\n    }\n}\n",
  "sourcePath": "/Users/nehasihag/Downloads/peershare github/backend/blockchain/contracts/Peershare.sol",
  "compiler": {
    "name": "solc",
    "version": "0.5.0+commit.1d4f565a.Emscripten.clang"
  },
  "schemaVersion": "3.0.1",
  "updatedAt": "2022-11-15T12:00:09.525Z",
  "devdoc": {
    "methods": {}
  },
  "userdoc": {
    "methods": {}
  }
}